:020000040800F2
:10000000E06A0020550200088D25000859210008EB
:100010005D210008CD070008A9300008000000009D
:10002000000000000000000000000000952500080E
:10003000DD07000800000000912500089925000850
:100040006F0200086F0200086F0200086F020008CC
:100050006F0200086F0200086F0200086F020008BC
:100060006F0200086F0200086F0200086F020008AC
:100070006F0200086F020008D10700086F02000835
:100080006F0200086F0200086F0200086F0200088C
:100090006F0200086F0200086F0200086F0200087C
:1000A0006F0200086F0200086F0200086F0200086C
:1000B0006F0200086F0200086F0200086F0200085C
:1000C0006F0200086F0200086F0200086F0200084C
:1000D0006F0200086F0200086F0200089D300008E0
:1000E0006F0200086F0200086F0200086F0200082C
:1000F0006F0200086F0200086F0200086F0200081C
:100100006F0200086F0200086F0200086F0200080B
:100110006F0200086F0200086F020008BD26000889
:100120006F0200086F0200086F0200086F020008EB
:100130006F0200086F0200086F0200086F020008DB
:100140006F0200086F0200086F0200086F020008CB
:100150006F0200086F0200086F0200086F020008BB
:100160006F0200086F0200086F0200086F020008AB
:100170006F0200086F0200086F0200080000000014
:100180006F0200086F02000800F002F800F052F859
:1001900014A696E8000CB244B344DA4501D100F04D
:1001A00049F8BAE80F000FA696E83000A5EB040561
:1001B00004EB0607AAEB0704A7F101074FEA1515A0
:1001C0004FEA3414A4F10104AC4201D300F032F838
:1001D00013F0010F18BFFB1A43F0010300F001F800
:1001E000DBE71847CC580000EC580000103A24BF59
:1001F00078C878C1FAD8520724BF30C830C144BF8C
:1002000004680C6070470000704700000023002461
:1002100000250026103A28BF78C1FBD8520728BF16
:1002200030C148BF0B6070471FB505F019FC1FBDFA
:1002300010B510BD00F071F91146FFF7F5FF02F09F
:1002400035FF00F08FF903B4FFF7F2FF03BC00F0B5
:1002500097F900000948804709480047FEE7FEE794
:10026000FEE7FEE7FEE7FEE7FEE7FEE7FEE7FEE766
:1002700004480549054A064B7047000065260008FA
:1002800089010008E0640020E06A0020E0660020A8
:10029000E066002053EA020C00F069802DE9F04B83
:1002A0004FF00006002B1FBFB3FA83F503FA05F4E5
:1002B00024FA05F65E4012BF1643B2FA82F502FA3E
:1002C00005F4C5F120051EBF22FA05FC44EA0C0422
:1002D000203556EA044C4FEA144418BF641C4FF012
:1002E00000084FF00009904271EB030C39D300294C
:1002F00019BFB1FA81F701FA07F6B0FA80F700FAF0
:1003000007F6C7F120071EBF20FA07FC46EA0C06D5
:100310002037B6FBF4FCA7EB0507103F07F01F0BD7
:10032000CBF120062CFA06F60CFA0BFB44BFB346C1
:100330000026202FA4BF5E464FF0000B5BEA060CA0
:1003400008BF4FF0010B19EB0B0948EB0608ABFB9C
:10035000027C06FB02CC0BFB03CCC01B71EB0C0137
:10036000C1E70B46024641464846BDE8F08B13B54F
:10037000084318BF4FF0FF300146AFF30080BDE8DF
:100380001C407047032A40F2308010F0030C00F04C
:10039000158011F8013BBCF1020F624498BF11F8BF
:1003A00001CB00F8013B38BF11F8013BA2F1040278
:1003B00098BF00F801CB38BF00F8013B11F00303F0
:1003C00000F07980083AC0F0088051F8043B083A00
:1003D00051F804CBA0E80810F5E7121D5CBF51F8F6
:1003E000043B40F8043BAFF30080D20724BF11F870
:1003F000013B11F801CB48BF11F8012B24BF00F8D5
:10040000013B00F801CB48BF00F8012B704702F018
:10041000FF0343EA032242EA024200F024B84FF00D
:1004200000020429C0F0128010F0030C00F01B80C1
:10043000CCF1040CBCF1020F18BF00F8012BA8BFCF
:1004400020F8022BA1EB0C0100F00DB85FEAC17C93
:1004500024BF00F8012B00F8012B48BF00F8012B46
:1004600070474FF0000200B5134694469646203977
:1004700022BFA0E80C50A0E80C50B1F12001BFF45D
:10048000F7AF090728BFA0E80C5048BF0CC05DF8C3
:1004900004EB890028BF40F8042B08BF704748BF11
:1004A00020F8022B11F0804F18BF00F8012B704785
:1004B00070477047704710B5203AC0F00B80B1E824
:1004C0001850A0E81850B1E81850A0E81850203A89
:1004D000BFF4F5AF5FEA027C24BFB1E81850A0E892
:1004E000185044BF18C918C0BDE810405FEA827CAC
:1004F00024BF51F8043B40F8043B08BF7047D207C3
:1005000028BF31F8023B48BF11F8012B28BF20F863
:10051000023B48BF00F8012B7047754600F02CF8ED
:10052000AE4605006946534620F00700854618B0E0
:1005300020B5FFF79DFEBDE820404FF000064FF0CC
:1005400000074FF000084FF0000BAC46ACE8C009C4
:10055000ACE8C009ACE8C009ACE8C00921F007016B
:100560008D46704710B50446AFF300802046BDE8C5
:100570001040FFF768BE00000048704710000020E0
:1005800001491820ABBEFEE72600020070470000BC
:10059000F0B583B040F21030C2F2000003F02EF943
:1005A00040F20430C2F200000024046040F2F22065
:1005B000C2F20000047040F20030C2F20000046099
:1005C00040F27C30C2F200000127077040F2F320B5
:1005D000C2F20000047040F2F120C2F20000047088
:1005E00040F27E3040F2E421C2F20000C2F200018B
:1005F00004800C8044804C8001F0DEFD00F022F984
:1006000008202321002204F049FB40F24C31C2F2C1
:1006100000010028086045D040F2F82542F661301C
:10062000C2F200050526C0F6000023A1C022002367
:10063000CDE9006504F06EFD40F2F42642F6ED10BF
:10064000C2F200060425C0F600001DA14FF480721E
:100650000023CDE9005604F05DFD42F6B9100325F4
:10066000C0F6000018A1C0220023CDE9005404F018
:1006700051FD42F2ED70C0F6000015A14FF4A072DA
:100680000023CDE9005404F045FD42F6D510C0F634
:10069000000011A1A0220023CDE9007404F03AFD6E
:1006A00003B0F0BD4FF0500080F31188BFF36F8F9F
:1006B000BFF34F8FFEE700BF73616665747900007A
:1006C0006D6F746F72000000656E636F6465720019
:1006D000636F6D6D000000006D6F6E69746F720066
:1006E00080B582B001460020019040F2103040F207
:1006F0005132C2F20000C2F2000202F041FF48B3E0
:1007000040F28430C2F20000006840F20431C2F2CC
:100710000001086040F2F220C2F2000001210170E5
:1007200040F24C30C2F20000006840F25131C2F297
:10073000000101AA002304F0F5FA019850B14EF629
:100740000450CEF200004FF080510160BFF34F8F94
:10075000BFF36F8F02B080BD80B582B000200190E2
:1007600040F28430C2F2000001680131016040F2C1
:10077000F820C2F20000006818B101AA002103F0BD
:1007800081FF40F27001C2F2000108780130C2B26C
:10079000052A08700BD340F2F420C2F20000006872
:1007A00000220A7018B101AA002103F06BFF019822
:1007B00050B14EF60450CEF200004FF0805101606F
:1007C000BFF34F8FBFF36F8F02B080BDFEE7000015
:1007D00040F27C00C2F2000000F010B97047000047
:1007E00001288FBF002040F2E821C2F2000131F859
:1007F000100000B270470000012884BF002070473D
:1008000040F20831C2F2000101EB800090ED000AD5
:100810009FED051AB8EEC00A20EE010ABDEEC00A2F
:1008200010EE100A704700BFE9016B3E01288FBF30
:10083000002040F27431C2F2000131F8100000B221
:1008400070470000B0B540F2E804C2F20004204650
:100850003C2101F02DF840F2A815C2F2000528460F
:100860003C2101F025F820680021416240F2FC2083
:10087000C2F20000018040F2E820C2F200000160F4
:1008800040F27430C2F200000160286840F2083281
:10089000416240F2FE20C2F20002C2F2000001807A
:1008A000C2E90011B0BD000040F20830C2F2000001
:1008B0000021C0E900117047002808BF704710B53B
:1008C00000EE100A9FED3D1AB8EE400A81EE000AD4
:1008D00040F2E800C2F20000006840F2FC21C2F2DF
:1008E0000001406A0A880880831A19B240F2083E63
:1008F00001EE101A9FED322AC2F2000EB8EEC11AB4
:10090000DEE9000221EE021A9FED2E3A40F2E82CB9
:1009100020EE011A9FED2C4AC2F2000C00FA83F07F
:10092000B4EE431AACF80030CEF80000F1EE10FA45
:10093000C8BFB0EE431AB4EE441AF1EE10FAB8BFD5
:10094000B0EE441A40F2A813BDEEC11A40F2743161
:10095000C2F2000311EE100AC2F200011B68088007
:10096000586A40F2FE23C2F200031C881880041B60
:1009700020B201EE100AB8EEC11A21EE021A20EEE2
:10098000010A02FA84F2B4EE430AACF80240CEF84F
:100990000420F1EE10FAC8BFB0EE430AB4EE440AE8
:1009A000F1EE10FAB8BFB0EE440ABDEEC00A10EE88
:1009B000100A4880BDE81040704700BF00007A442C
:1009C000E9016B3E00FEFF46000000C7EFF3108018
:1009D00072B600BFFEE7000090F83510022909D179
:1009E000052180F835100068016821F001010160DF
:1009F000002070478021416501207047F0B581B02B
:100A00000021009140F20001C2F200010B68D0E920
:100A1000166148F2B51537680822C1F64E358A408E
:100A20003A42A3FB05350CD003681C68640708D55F
:100A30001C6824F004041C60B260426D42F00102A4
:100A4000426501228A403A4208D003685B691B066E
:100A500004D5B260426D42F00202426504228A402F
:100A60003A4208D003681B689B0704D5B260426D08
:100A700042F00402426510228A403A4216D00168D0
:100A80000B681B0712D5B2600B680A685B0306D4BB
:100A9000D20506D40A6822F008020A6001E01103B8
:100AA00040D4016C11B1044688472046C26D202114
:100AB00001FA02F33B4242D001680F68FF063ED5BF
:100AC000B36090F835700B68052F1BD123F0160327
:100AD0000B604B6923F080034B61036C0BB9836C93
:100AE0001BB10B6823F008030B603F219140B160FC
:100AF000002180F83410012180F83510016D0029A3
:100B000053D156E00A685B0310D4D20512D40A68A8
:100B100022F010020A60002180F83410012180F8D0
:100B2000351007E0816C0029BDD1BFE7110301D466
:100B3000416C00E0C16B11B1044688472046416D0D
:100B4000B9B3416DC9072ED0052180F83510016871
:100B5000AA0A0B6823F001030B60009B0133934248
:100B600000931AD80B68DB0717D0009B0133934220
:100B7000009312D80B68DB070FD0009B0133934220
:100B800000930AD80B68DB0707D0009B0133934220
:100B9000009302D80B68DB07DFD1002180F8341006
:100BA000012180F83510C16C19B101B0BDE8F040E9
:100BB000084701B0F0BD00002DE9F041044600F007
:100BC000C5F9C4B10546002084F83400022084F839
:100BD00035002068016821F0010101602168086882
:100BE000C0070BD000F0B2F9401B0528F6D9032549
:100BF0002023032064E00120BDE8F081086848F26A
:100C00003F02CFF21002D4E9013500EA020C04F1F0
:100C10000C0898E8C10143EA0C032B431843D4E9BC
:100C2000072E304338431043626A40EA0E00042A1C
:100C300040EA08031CD1206BD4E90A2E40EA0E00DA
:100C4000184308604869BEF1000F20F0030040EA35
:100C5000020040F0040C11D0B8F5005F35D0B8F1B7
:100C6000000F42D1022A43D0012A38D032B93FE0E6
:100C70000B60486920F0070040EA020C01F0F80020
:100C80004AF6AB221038CAF6AA22A0FB02231A09A0
:100C900045F6A423C1F814C0C0F600039A5C40F2E4
:100CA000FF335F284FF03F0021EA030100FA02F012
:100CB00088BF0431C4E91612886000230125002092
:100CC000636584F83550BDE8F081032AD6D8012544
:100CD00040230120DFE802F0020C0203F0E7AEF14E
:100CE000C070B0FA80F0400904E0032A04D3C5D1F3
:100CF000CEF300600028C1D0012540230120DFE7AA
:100D000090F834C0BCF1010F04BF0220704770B5E9
:100D10004FF0010C80F834C0D0F858E090F835C09E
:100D2000BCF1010F3DD14FF0020C80F835C04FF0FF
:100D3000000CC0F854C0D0F800C08468056CC06DC9
:100D4000DCF80060402C26F48026CCF80060CCF85B
:100D500004300B4604BF13460A463F2101FA00F057
:100D6000CCF80830CCF80C20CEF80800DCF80000F5
:100D700040F01600CCF80000DCF8140040F08000D1
:100D8000CCF814002DB1DCF8000040F00800CCF8DD
:100D90000000DCF8000040F00100CCF8000000206A
:100DA00070BD002180F83410022070BD2DE9F04F95
:100DB00083B000F1200200F13E4741F60045019268
:100DC00007F1FF77C4F2020508224FEAB726A842CE
:100DD00008BF0722072E38BF4FEAB7224FF0010E97
:100DE00000274FF000084FF0000900920AE000BF12
:100DF00009F1010908F10408B9F1100F07F1020720
:100E000000F09A800D680EFA09FA15EA0A0CEFD084
:100E1000D1F804B04BF01005122D16D16FF003027B
:100E2000019E02EA590508F01C020F2356F805B08E
:100E300003FA02F40B692BEA040403FA02F22243D8
:100E40007251D1F804B04FF0010E02680323BB4089
:100E5000DD439A430BF00303BB401A43BBF1120F6F
:100E6000026013D80EFA0BF212F0061F0ED0826841
:100E7000CB682A40BB401A43826042684FEA1B138A
:100E800022EA0A0203FA09F31A434260C2688B6835
:100E90002A40BB401A435FEACB03C260A8D50022B8
:100EA00043F644030292C4F202031A6843F6004672
:100EB00042F480421A601A68C4F2010602F48042C9
:100EC0000292029A29F003024FF6084A3244CFF602
:100ED000FF7A52F80A3008F00C040F25A540AB4306
:100EE000009D05FA04F4234342F80A3032684B6847
:100EF00042EA0C04DD0358BF22EA0C043460726835
:100F00009D0342EA0C0458BF22EA0C047460B268E4
:100F1000DD0242EA0C0443F60C4558BF22EA0C04F9
:100F2000B460C4F201052A689B0242EA0C0458BF6F
:100F300022EA0C042C605BE703B0BDE8F08F0000F0
:100F4000002A08BF090481617047000046F2C030E2
:100F5000C2F2000000687047002804BF01207047FB
:100F6000B0B504460068D4E901124CF6CC430360E6
:100F700045F25553036041608260FFF7E7FF054685
:100F80002068C16831B1FFF7E1FF401B3028F7D975
:100F90000320B0BD4AF6AA2101600020B0BD0000C8
:100FA00001684AF6AA2200200A60704740F2040055
:100FB00046F2C031C2F20000C2F2000100780A68B5
:100FC000104408607047000080B543F60040C4F24A
:100FD0000200016841F400710160016841F4806120
:100FE0000160052000F08AF80F2000F005F800F0FD
:100FF0002BF8002080BD0000B0B540F20402C2F220
:10100000000240F200011278C2F200014FF47A733C
:101010000968B3FBF2F20446B1FBF2F1084600F0B6
:1010200017FB0F2C4FF001050CD858B94FF0FF30CB
:1010300021460022002500F035F840F20800C2F2F7
:10104000000004602846B0BD82B0002043F6400195
:101050000190C4F202014A6842F480424A604A6840
:1010600002F480420192019A0090086840F080509A
:101070000860086800F080500090009802B0704747
:10108000002848BF704700F01F01012202FA01F159
:101090001C2202EAD0004EF20012CEF20002815071
:1010A0007047000010B54EF60C5CCEF2000CDCF878
:1010B0000030C3F3022E8EF00704042C28BF042452
:1010C000BEF103034FF0FF3E0EFA04F438BF0023D5
:1010D000A14399400EFA03F39A43114300F00F0223
:1010E00000F160430901043A03F5644362440028B7
:1010F00048BF02F10C03197010BD00004EF60C51F0
:10110000CEF200010A684FF6FF031A4060F30A228C
:1011100042F0806040F0FD7008607047002804BF16
:10112000012070472DE9F04143F60808C4F2020897
:101130000446D8F8F8030D4600F00F00814207D9A5
:1011400088F8F853D8F8F80300F00F00A84271D1DE
:101150002068810717D5410705D5D8F8001041F45C
:10116000E051C8F80010010705D5D8F8001041F487
:101170006041C8F80010D8F80010A26821F0F00112
:101180001143C8F80010C0073AD1D8F8F80300F0AE
:101190000F00854207D288F8F853D8F8F80300F01A
:1011A0000F00A84246D12068410707D5D8F80010A3
:1011B000E26821F4E0511143C8F80010000708D597
:1011C000D8F80000216920F4604040EAC100C8F866
:1011D000000000F077F8D8F8001045F67A22C1F345
:1011E0000311C0F60002515CC84040F20001C2F297
:1011F000000108600F20FFF7FFFE0020BDE8F0812E
:101200006068811E022907D258F8081C89015CBF5A
:101210000120BDE8F08110E0012807D158F8081C32
:1012200089035CBF0120BDE8F08106E058F8081C86
:10123000890702D40120BDE8F081D8F8001021F020
:1012400003010843C8F80000FFF780FE064641F29C
:10125000883700BFD8F80000616800F00C00B0EBE0
:10126000810F92D0FFF772FE801BB842F2D90320A3
:10127000BDE8F08140F2000043F60801C2F2000030
:10128000C4F202010068096845F68A22C1F382218E
:10129000C0F60002515CC8407047000040F20000F8
:1012A00043F60801C2F20000C4F2020100680968B6
:1012B00045F68A22C1F34231C0F60002515CC840B3
:1012C0007047000010B543F60404C4F202046168DC
:1012D000C1F3810142F20040C0F2F400DFE801F006
:1012E0000203080210BD41F20020C0F27A0010BDD6
:1012F000216801F03F02216823684902C3F3881185
:1013000005D4A1FB00010023FEF7C4FF06E041F273
:101310000020C0F27A004843B0FBF2F021680222BC
:10132000C1F3014102EB4101B0FBF1F010BD00003F
:10133000002804BF012070472DE9F04182B0044627
:10134000007843F60006C007C4F202060BD0B0686E
:1013500000F00C00042872D13068800303D5606867
:10136000002800F0BF802078800719D5B06810F001
:101370000C0F07D0B06800F00C00082879D1706815
:10138000400276D43068800703D5E068012840F039
:10139000A9803068216920F0F80040EAC10030607F
:1013A0002078000710D42078400722D4A569002DAA
:1013B00000F02181B06800F00C00082840F0968011
:1013C000012002B0BDE8F0816069002876D00020DD
:1013D000C4F247200121C0F8801EFFF7B7FD054683
:1013E000706F8007DFD4FFF7B1FD401B0228F7D9EB
:1013F000DDE0306C5FEAC0080AD400200190306C58
:1014000040F080503064306C00F0805001900198C2
:1014100047F20007C4F200073868C00540D43868B6
:1014200040F480703860FFF791FD05463868C005CC
:1014300036D4FFF78BFD401B0228F7D9B7E0B06820
:1014400000F00C00082803D1706840023FF584AF1B
:1014500061683068B1F5803F07D0B1F5A02F40F04A
:10146000908040F480203060306840F480303060FC
:1014700090E0E068002840F20000C4F2472058D015
:1014800001210160FFF762FD054600BF306880075B
:101490003FF57FAFFFF75AFD401B0228F6D986E0E3
:1014A000A168306F012905D0052953D140F004000F
:1014B0003067306F40F00100306754E00020C4F224
:1014C00047200021C0F8801EFFF740FD054600BF01
:1014D000706F80077FF567AFFFF738FD401B02286C
:1014E000F6D964E0012002B0BDE8F0810027C4F223
:1014F000472700203866FFF729FD022D05460DD14C
:101500003068800157D5FFF721FD401B02284FF0BE
:101510000300F5D902B0BDE8F08100BF306880015A
:1015200069D5FFF713FD401B03284FF00300F5D3E7
:10153000F0E700210160FFF709FD054630688007EC
:101540007FF52EAFFFF702FD401B02284FF003008E
:10155000F4D9DFE720F001003067306F002920F078
:10156000040030674BD0FFF7F1FC054641F28837A5
:10157000306F800753D4FFF7E9FC401BB842F7D91E
:1015800015E020F4803030603068002920F480209D
:1015900030604DD0FFF7DAFC054600BF30688003AD
:1015A0003FF5E1AEFFF7D2FC401B6428F6D90320DB
:1015B00002B0BDE8F08104F11C052FCD084340EADC
:1015C0008210D9034FF6FF729143A1F5803140EAB2
:1015D00005600843706001203866FFF7B7FC0446D9
:1015E0003068800107D4FFF7B1FC001B02284FF0E0
:1015F0000300F5D98EE7002002B0BDE8F081FFF7C7
:10160000A5FC054641F28837306F800707D5FFF704
:101610009DFC401BB8424FF00300F5D97AE7B8F1C2
:10162000000F3FF5C3AE306C20F080503064BDE653
:10163000FFF78CFC054600BF306880037FF593AE52
:10164000FFF784FC401B64284FF00300F4D961E7E6
:10165000411E0020B0EB116F1CBF012070474EF2FD
:101660001002CEF2000251604EF62351CEF200017C
:10167000F0230B70072190601160704770470000E5
:1016800070470000002804BF0120704710B50446D1
:1016900090F83D0028B9002084F83C00204600F076
:1016A0000DF8022084F83D002068211D01F00CF89F
:1016B000012084F83D00002010BD0000006841F2C8
:1016C0000041C4F20001884218BF704780B582B063
:1016D0000020019043F64000C4F20200016800229D
:1016E00041F0200101600068062100F02000019017
:1016F00001983720FFF7D6FC372002B0BDE88040C4
:10170000FFF7BEBC0068C16841F00101C16081689B
:1017100001F00701062903D0016841F001010160D1
:1017200000207047002804BF012070472DE9F047D2
:10173000044690F83D000D4628B9002084F83C008E
:10174000204600F03FF8022084F83D00206844F273
:101750000702816891438160211D00F0B5FF206878
:101760004FF6FF7881688269D0F820C0D5E9003E45
:10177000D5E9026A43EA0109AB6922EA080246EAAE
:1017800003234FF6FC46B343D5E9076742EA0A0252
:1017900029691A4342EA062242EA01112CF0AA0200
:1017A0006B6942EA0E0241EA073142EA0312C0F8CD
:1017B000089081610262012084F83D000020BDE8AC
:1017C000F087000010B586B0006840F20042C4F215
:1017D000010200219042CDE90411CDE902110191ED
:1017E0003AD0B0F1804F60D1002043F63001009034
:1017F000C4F202010A69002442F001020A610A6986
:10180000C4F2020402F001020092009A00900A68F9
:1018100042F001020A600A6802F001020092009A96
:101820000090086840F0020008600868012100F09C
:101830000200009000984FF40040019002200290B6
:10184000CDE90310059101A92046FFF7AFFA082062
:10185000019004F5806025E043F630000091C4F269
:101860000200426942F002024261426902F0020251
:101870000092009A0091016841F004010160006843
:10188000012100F0040000900098C0200190022087
:101890000290CDE90310032005900020C4F202005D
:1018A00000F5006001A9FFF781FA06B010BD000045
:1018B00002680429106A0AD020F0010009B9012148
:1018C00008E01062106A40F001001062106A20F017
:1018D000100010211062106A08431062106840F076
:1018E00001010020116070477047000010B50168C9
:1018F00004460869800744BFC8685FEA807038D42E
:101900000869400744BFC8685FEA40703DD4086971
:10191000000744BFC8685FEA007043D40869C00686
:1019200044BFC8685FEAC06048D40869C0071CBFEC
:10193000C8685FEAC0704ED10869000644BFC86835
:101940005FEA00604FD40869400644BFC8685FEA98
:10195000406050D40869800646BFC8685FEA80606E
:1019600010BD6FF0200220460A61BDE81040FFF76D
:1019700087BE6FF002000861012020778869800728
:1019800041D02046FFF7B0FF43E06FF0040008614C
:1019900002202077886910F4407F3ED02046FFF770
:1019A000A3FF40E06FF00800086104202077C869B9
:1019B00080073CD02046FFF797FF3EE06FF0100015
:1019C000086108202077C86910F4407F39D020468C
:1019D000FFF78AFF3BE06FF001000861204600F04E
:1019E000C7F92168A8E76FF0800008612046FFF77B
:1019F00045FE2168A7E76FF040000861204600F02F
:101A0000C1F92168A6E7204600F026F8204600F03C
:101A100087F921680020207772E7204600F01CF843
:101A2000204600F07DF92168002020776FE72046EE
:101A300000F012F8204600F073F9216800202077AA
:101A40006CE7204600F008F8204600F069F92168AC
:101A50000020207769E700007047000090F83C30D4
:101A6000012B4FF0020300F004814FEAB202032A77
:101A700080F83D3000F2F7802DE9F043DFE802F016
:101A800002AF3D7D036840F200461A6A43F4806568
:101A900022F001021A621C6A1A46D3F804C052F8F6
:101AA00018EF8F6824F00204C4F20106B54244EA3C
:101AB000070405D1CF6824F00C0427F004073C4349
:101AC0000F68B54206D1D1E905582CF440762E4373
:101AD00046EA080C2EF073063743C3F804C09F6132
:101AE0004F6809695F631C629F6947F008079F613F
:101AF0009F6927F004079F61B0E0036840F2004847
:101B00001A6A43F4806522F480721A621C6A1A46CB
:101B1000D3F804C052F81CEF8F6824F40074C4F2A8
:101B20000108454544EA072408D1CF6840F2FF4642
:101B30003F0224F4406427EA06063443D1F80090BB
:101B4000454506D1D1E905562CF440572E4347EAC6
:101B5000061C2EF0730747EA0907C3F804C0DF61CB
:101B60004F680969DF631C62DF6947F00807DF61BE
:101B7000DF6927F00407DF6170E0036840F2004589
:101B80001A6A43F4806722F480521A621A46D3F824
:101B900020C05C6852F81C8FD1F800E08E68C4F257
:101BA0000105AF4204D14D6924F4804444EA851410
:101BB0002CF4005747EA063728F4E64646EA0E2694
:101BC0005C60DE614E6809691E641F62DF6947F46C
:101BD0000067DF61DF6927F48067DF613DE003684C
:101BE00040F200481A6A43F4806522F010021A623B
:101BF0001C6A1A46D3F804C052F818EF8F6824F014
:101C00002004C4F20108454544EA071407D1CF680F
:101C10006FF0400624F0C00406EA07163443D1F8FA
:101C20000090454506D1D1E905562CF440672E4376
:101C300047EA860C2EF4E64747EA0927C3F804C0B2
:101C40009F614F6809699F631C629F6947F4006741
:101C50009F619F6927F480679F6109021368194398
:101C60001160BDE8F0430121002380F83D1080F8A9
:101C70003C30184670470000002804BF0120704720
:101C800010B5044690F83D0028B9002084F83C00C7
:101C9000204600F00DF8022084F83D002068211D48
:101CA00000F012FD012084F83D00002010BD00006E
:101CB00080B586B040F200410068C4F20001002205
:101CC00088420592CDE903220292019201D006B02A
:101CD00080BD43F630000092C4F20200036943F075
:101CE00002030361036903F002030093009B009267
:101CF000036843F002030360006800F002000090F4
:101D00000098332001900220CDE90202CDE90400C1
:101D100001F5003001A9FFF749F806B080BD0000C9
:101D200070470000006801F01F010122036A02FAF7
:101D300001F123EA01020262D0F820C040F2004221
:101D400040F48063C4F20102934241EA0C01016253
:101D500003D1416C41F400414164816801F0070105
:101D6000062903D0016841F001010160002070479D
:101D7000006841F20041C4F20001884218BF704778
:101D8000FEF7EABC7047000070470000B0B501687C
:101D90000A68CC684B6902F02F05202D04F020055D
:101DA00004D11DB1BDE8B04001F012B85FEA027C79
:101DB0001EBF03F0010E04F4907313EB0E0329D140
:101DC000130616D514F0800313D090F83920212A79
:101DD00031D18368026AB3F5805F23D113886FF332
:101DE0005F234B600369002B14BF01320232026291
:101DF0001CE052061FD514F0400208BFB0BDCA68EF
:101E000022F04002CA60202180F83910BDE8B040BD
:101E100000F09EB9D30718BF14F480730CD1530798
:101E200010D416E0531C036212784A60C28C013A47
:101E30001304C2845DD0B0BDC36B43F00103C36320
:101E4000530706D5BEF1000F03D0C36B43F0020366
:101E5000C363930706D5BEF1000F03D0C36B43F0F5
:101E60000403C363BCF1000F06D5BEF1000F03D01D
:101E7000C36B43F00803C363C36B002BDBD0920634
:101E800005D525B1044600F0A3FF216820464A6924
:101E9000C36B02F0400203F00803D21823D0CA68D3
:101EA00022F49072CA604A6922F001024A6120223B
:101EB00080F83A204A69520624D54A6922F0400245
:101EC0004A61416BF1B142F63952C0F60002044654
:101ED00008460A65FEF780FD0028ACD0606B016DF6
:101EE000BDE8B04008470446FFF74EFF0020E0631E
:101EF000B0BDC86820F08000C860C86840F04000ED
:101F0000C860B0BDBDE8B040FFF73EBF002804BFC9
:101F10000120704710B5044690F8390028B9002018
:101F200084F83800204600F021F8242084F8390095
:101F30002068C16821F40051C160204600F084FF90
:101F40002068016921F490410161416921F02A0171
:101F50004161C16841F40051C16000202021E0636B
:101F600084F8391084F83A1010BD000070B586B0BE
:101F7000044644F600002168C4F2000000268142B5
:101F80000596CDE903660296019601D006B070BDB4
:101F900043F630010096C4F202010A6900F5DE3012
:101FA00042F480220A610A6902F480220092009AB7
:101FB00000960A6842F002020A60096801F0020114
:101FC000009100994FF44061019102210291012199
:101FD0000391032104910721059101A9FEF7E6FE73
:101FE00040F27C0546F25800C2F20005C4F202003D
:101FF0004FF0006140224FF4806385E84700284697
:10200000C5E90436C5E90666C5E90866FEF7D4FDEC
:10201000002818BFFEF7DAFC2720052100222563DF
:10202000AC63FFF73FF82720FFF72AF806B070BD32
:10203000034690F83A0020280AD100294FF0010009
:1020400018BF002A00D1704793F83800012801D149
:10205000022070479962002022219A85DA85D86390
:1020600083F83A10196883F83800CA6842F480721D
:10207000CA604A6942F001024A61CA6842F020021D
:10208000CA607047006844F60001C4F2000188424B
:1020900018BF704710B540F25034C2F200042078E7
:1020A000FEF71EFB40F2E810C2F2000021460122BA
:1020B000BDE81040FFF7BCBF90F83930202B1CBFA3
:1020C00002207047B0B5964600294FF0010218BFB4
:1020D000BEF1000F03D1BDE8B0401046704790F844
:1020E0003820012A01D10222F5E7012280F83820A8
:1020F000002221230162A0F824E0A0F826E0C263B8
:1021000080F83930D0F830C042F6A15442F6C955B3
:10211000C0F60004C0F600050368CCE90F4542F69E
:102120004554C0F60004CCE913421A1D044660462B
:102130007346FEF7E5FD206800226FF04001016064
:1021400084F83820416941F080014161C3E7000013
:102150007047000070470000FEE70000FEE7000047
:1021600040F22810C2F2000000680022C16A01316A
:102170004163C16A0131816340F2EC21C2F2000186
:102180000A60C16A0131C163C16A013101647047EB
:1021900040F22810C2F200000068C16A00214163C9
:1021A000C26A40F2EC22C2F2000281631160C26A8C
:1021B000C163C26A016470472DE9F04387B040F201
:1021C0002814C2F2000420680027C16A4763C16A6C
:1021D0008763C16AC763C16A076420460021FFF7AD
:1021E000A1FD20460421FFF79DFD20460821FFF7B1
:1021F00099FD20460C21FFF795FD43F63004069724
:10220000CDE90477CDE902770197C4F20204206892
:1022100040F2000840F0010020602068C4F202088B
:1022200000F00100019001980197206802AD40F094
:102230002000206020684FF0010900F0200001908C
:1022400001982020029040462946CDE90397059742
:10225000FEF7ACFD4FF4006008F5A0560290304642
:102260002946FEF7A3FD404620210022FEF768FE26
:1022700030464FF400610022FEF762FE0697CDE97A
:102280000477CDE9027701972068012140F0010031
:1022900020602068002200F0010001900198404673
:1022A000FEF74EFE02A94046CDE90299CDE904773A
:1022B000FEF77CFD40F24830C2F20000077040F2A9
:1022C000EC20C2F20000076040F2F020C2F20000F1
:1022D000077007B0BDE8F08340F24830C2F200005A
:1022E0000078704710B50020C4F2020001210022DE
:1022F0000024FEF725FE40F24830C2F200000470D0
:1023000010BD000010B50020C4F20200012101221E
:102310000124FEF715FE40F24830C2F200000470BE
:1023200010BD0000012888BF70472DE9F04381B03F
:1023300040F2F022C2F2000212784AB34A1E92B270
:102340004F2A10D3B1F57A7F0A464FF61844A8BF3A
:102350004FF47A72CFF6FF7412F57A7FC8BF144635
:1023600011F1500F2AD945F6942240F22811C0F6F7
:102370000002C2F20001096852F82020CB6A002A4C
:102380004CD0082A48D0042A14BF4022382246E004
:1023900045F6942240F22811C0F60002C2F2000174
:1023A000096852F82020CB6A2AB3082A04D0042AEC
:1023B00014BF402238221FE03C221DE022B284EAF2
:1023C000E2330129A3EBE23247DB40F2281345F662
:1023D0009421C2F20003C0F600011D6851F82030BC
:1023E000E96A8146002B52D0082B4ED0042B14BF33
:1023F000402638264CE0342200248C5045F69C229E
:10240000C0F6000252F82020CB6AD2B1082A16D0BA
:10241000042A12D1382215E03C2200E034220024A4
:102420008C5045F69C22C0F6000252F82020CB6A60
:102430003AB1082A03D0042AECD0402202E03C2220
:1024400000E034228C5040F2EC21C2F2000121F86D
:10245000104001B0BDE8F0437047B1F1FF3F3FF7D6
:1024600082AF45F6942140F22813C0F60001C2F273
:1024700000031D6851F82010EB6AA1B3082930D081
:10248000042914BF402138212EE03C2600E03426E8
:102490004F1C90B2A7FB00014FF47A7200234FF05B
:1024A0000008FDF7F7FE45F69C21874238BF384605
:1024B000A851C0F6000151F829104846EA6A61B1F6
:1024C000082906D0042914BF4021382145F801808D
:1024D000B9E73C2145F80180B5E7342145F8018092
:1024E000B1E73C2100E0342100236B5045F69C21EC
:1024F000C0F6000151F82030E96A804643B1082B4C
:1025000004D0042B14BF4027382702E03C2700E00A
:1025100034274E1C90B2A6FB00014FF47A720023C0
:10252000FDF7B8FE864238BF3046E85140468AE79C
:10253000B0B5044640F2F0200025C2F20000C4F21B
:1025400002050470284620212246FEF7F9FC05F515
:10255000A0504FF400612246FEF7F2FC002C18BF99
:10256000B0BD40F22810C2F200000068C16A00212C
:102570004163C26A40F2EC22C2F200028163116040
:10258000C26AC163C26A0164B0BD00007047000046
:10259000704700007047000080B5FEF707FD02F0AD
:1025A0009DFF012808BF80BDBDE8804002F05EBBF2
:1025B00070B592B006AC20463021FDF752FF0025E1
:1025C00043F640000595CDE90355CDE90155009549
:1025D000C4F202000168022641F0805101600068E7
:1025E00000F080500090009847F200000095C4F27F
:1025F0000000016841F480410160006800F48040FF
:1026000000900098012006904FF4803007904FF41E
:1026100080000D9008200E904FF4A870CDE90F06B1
:102620000720119020460C96FEF782FE18B1EFF3BA
:10263000108072B6FEE70F20CDE901064FF4A050DE
:1026400004904FF48050059001A805210395FEF7F2
:1026500065FD20B1EFF3108072B600BFFEE712B047
:1026600070BD00004EF68850CEF2000001684FF0B9
:10267000000C41F47001016043F60001C4F2020154
:102680000A6842F001020A60C1F808C00B684FF600
:10269000FF72CFF6F6621A400A6043F21002C2F2ED
:1026A00000424A600A6822F480220A60C1F80CC025
:1026B0004FF0006140F8801C7047000040F2681045
:1026C000C2F20000FFF712B910B540F6FF3E0368F2
:1026D000C4F2000E40F2004C7045C4F2010C0FDC55
:1026E000B0F1804F19D040F20042C4F20002904293
:1026F00013D040F60002C4F2000290420DD010E068
:1027000040F60042C4F20002904206D0604504D078
:102710000022C4F20102904203D14A6823F0700300
:10272000134341F6FF72C4F2000290420FDC704581
:1027300021DCB0F1804F41D040F20042C4F20002EF
:1027400090423BD040F60002C4F2000234E043F66F
:10275000FF72C4F2010290421EDC42F20002C4F297
:10276000000290422AD00022C4F20102904225D0F9
:10277000604523D026E040F60042C4F200029042B9
:102780001CD041F60002C4F20002904216D041F67D
:102790000042C4F200020FE044F20002C4F201025F
:1027A00090420BD044F60002C4F20102904205D0E0
:1027B00044F20042C4F20102904203D1CA6823F4F9
:1027C0004073134323F080024B69D1F800E08C681A
:1027D0001A430260C46240F48062C0F828E0624597
:1027E00004BF096901630121416110BD8EB00DF183
:1027F000130909F1030040F24C3A40F27E3540F2F1
:102800007C3640F2843740F2003B039009F105002A
:10281000C2F2000A4FF00108C2F20005C2F200063F
:102820000024C2F20007C2F2000B0290DAF80000A6
:102830004946322202F016FB012840F0AF809DF895
:102840001400411E102923D8DFE801F009575C80ED
:102850005122A822222222222222222254009DF842
:1028600015000428C0F09A80039800F087FD2880A6
:10287000029800F083FD68803078012840F08E8057
:10288000FFF740FD0120FFF753FE0220307085E086
:1028900040F2B831C2F200010A788DF83600501CBF
:1028A0000123087040F288308DF83730C2F2000002
:1028B00030217F2302260DF13604A846CDE90046DB
:1028C00000F060FD50B1024640F2E81040F288315D
:1028D000C2F20000C2F20001FFF7EEFB40F27C36CC
:1028E00045464FF00108C2F20006002456E0FDF70D
:1028F000DBFF53E001F05AFB50E02C806C8086F83F
:1029000000804BE040F2F120C2F2000080F800802D
:1029100040F2F320C2F20000007828B940F2F3211F
:102920000220C2F200010870FFF71AFC0020FFF736
:10293000FFFDFFF7D7FC40F2E420C2F200002C803C
:102940006C80048044800320307027E00020FDF775
:102950006DFF01B280EAE130A0EBE13000B2312836
:102960001CDC0120FDF762FF01B280EAE130A0EB40
:10297000E13000B2312811DC40F2F120C2F2000057
:10298000047040F2F320C2F20000047086F8008068
:10299000386840F20431C2F2000108603868DBF8A0
:1029A0000010401A3228FFF441AF3868CBF800001D
:1029B00001F0FCFA3AE7000082B002F0A3FD01AC9E
:1029C000019000BF20460A2102F0F6FC0A20FDF724
:1029D00073FFF7E740F2DC04C2F200044FF47A70B0
:1029E00001F0E8FD2046FEF7DBFAF7E740F27C3421
:1029F00040F27E3840F274099FED538A9FED539A5E
:102A00009FED53AA9FED53BA9FED53CA9FED53DA42
:102A100040F2E42740F27805C2F20004C2F2000856
:102A2000C2F20009C2F20007C2F200050AE000BFCC
:102A3000B7F900100020FFF775FCB7F9021001206C
:102A4000FFF770FC002001214FF0FF3201F012FB74
:102A500020780328F6D0B8F900600020FDF7E6FEE4
:102A6000301A00EE100AB8EEC00A99ED001A20EEF6
:102A7000082A32EE011AB4EE491AF1EE10FAC8BF74
:102A8000B0EE491AB4EE4A1A20EE0B0AF1EE10FA33
:102A9000B8BFB0EE4A1A30EE010AB4EE4C0A89ED26
:102AA000001AF1EE10FAC8BFB0EE4C0AB4EE4D0AAF
:102AB000F1EE10FAB8BFB0EE4D0ABDEEC00A10EE4E
:102AC000100A3880B8F902600120FDF7AFFE301A15
:102AD00000EE100AB8EEC00A95ED001A20EE082AA2
:102AE00032EE011AB4EE491AF1EE10FAC8BFB0EE98
:102AF000491AB4EE4A1A20EE0B0AF1EE10FAB8BFEA
:102B0000B0EE4A1A30EE010AB4EE4C0A85ED001A16
:102B1000F1EE10FAC8BFB0EE4C0AB4EE4D0AF1EE79
:102B200010FAB8BFB0EE4D0ABDEEC00A10EE100AA2
:102B30007880207802283FF47BAF207801287FF44A
:102B400081AFFFF725FB7DE7CDCC4C3D0000C843AE
:102B50000000C8C39A99993E00007A4400007AC4E4
:102B600040F2F22740F2F32640F27E3840F2E429A8
:102B70009FED708A40F2783A4FF6A7540025C2F2D2
:102B80000007C2F20006C2F20008C2F20009B7EE66
:102B9000089AB2EE00AAC2F2000A01E0CAF8005098
:102BA000002001214FF0FF3201F064FA387801284B
:102BB00036D140F2F120C2F20000007880BB40F232
:102BC000843040F20431C2F20000C2F20001006819
:102BD0000968401AB0F57A7F1AD93078002804BF06
:102BE00001203070FFF7BCFA0020FFF7A1FCFFF7CF
:102BF00079FB40F27C30C2F200000321A8F80050BB
:102C0000A8F80250A9F80050A9F80250017007E096
:102C1000B0F5FA7F84BFA8F80050A8F8025000BFB2
:102C2000B9F90000B9F90010002848BF4942B9F9C4
:102C30000200B9F90220002848BF524200EE101AE3
:102C400001EE102AB8EEC00AB8EEC11A80EE080AEA
:102C500081EE081A20EE090A21EE091A31EE000A67
:102C6000B4EE4A0AF1EE10FA14DD3078002804BF01
:102C700004203070B8F8000000EBD03000B24008FB
:102C8000A8F80000B8F8020000EBD03000B240080D
:102C9000A8F80200B9F80000A0F22D1080B2A042FE
:102CA00008D20020FDF79CFDB0FA80F04FEA501BDF
:102CB00002E000BF4FF0000BB9F80200A0F22D10A7
:102CC00080B2A0420CD20120FDF78AFDB0FA80F05C
:102CD000400940EA0B00C0073FF460AF04E000BFCA
:102CE000BBF1000F3FF45AAFDAF800000130CAF828
:102CF0000000DAF80000B0F5FA7F7FF651AF3078C7
:102D0000002804BF03203070FFF72AFA0020FFF7E5
:102D10000FFCFFF7E7FA40F27C30C2F2000003211B
:102D2000A8F80050A8F80250A9F80050A9F80250DD
:102D3000017035E700007A44806B0021C185C184B1
:102D4000FFF722B8806B01684A6990F83930212B6F
:102D50000BD112F0800208D00022C284CA6822F08F
:102D6000C002CA60202280F839204A6990F83A30BF
:102D7000222B0FD112F040020CD00022C285CA686B
:102D800022F49072CA604A6922F001024A6120214D
:102D900080F83A10C16B41F01001C163FEF7F4BF37
:102DA0000168806B0968C90548BFFFF7D1B90021E8
:102DB000C1840068416921F080014161C16841F02E
:102DC0004001C16070470000806BFFF7C3B900008D
:102DD00090F83A10222918BF70478168B1F5805FDA
:102DE00008D102680369816A52687BB1D2B221F8C6
:102DF000012B0FE0016802694968002A826A18BF46
:102E000001F07F01531C8362117004E06FF35F22B5
:102E100021F8022B8162C18D01390A04C18500D0DD
:102E200070470168CA6822F02002CA60CA6822F4AA
:102E30008072CA604A6922F001024A61202180F84A
:102E40003A10FFF71FB900002DE9F047044600686B
:102E500004F108030ECB0769194327F440573A439E
:102E60000261626949F20C671143E269C36848F282
:102E70001F58BB4319431143C1604169A36921F441
:102E800040711943416141F20041B2F5004FC5F272
:102E9000EB1840F48060C4F201013BD1884274D148
:102EA000FEF7FCF96168192568434900B0FBF1F0B1
:102EB000A0FB08016FF00F0000EA5106FEF7EEF9E3
:102EC000616868434900B0FBF1F7FEF7E7F9616814
:102ED00068434900B0FBF1F0A0FB080148096421F8
:102EE00000FB1170322101EBC000A0FB08014FF480
:102EF000F87000EA111000EB0609FEF7CFF96168DF
:102F000068434900B0FBF1FA072503260127FEF7C5
:102F1000C5F9AAE0884270D1FEF7C0F961681925A9
:102F200068438900B0FBF1F0A0FB08016FF00F00CF
:102F300000EA5106FEF7B2F9616868438900B0FB08
:102F4000F1F7FEF7ABF9616868438900B0FBF1F077
:102F5000A0FB08014809642100FB1170322101EB3C
:102F60000010A0FB0801F02000EA511000EB060958
:102F7000FEF794F9616868438900B0FBF1FA0F2508
:102F800004260227FEF78AF96FE0FEF773F96168FD
:102F9000192568434900B0FBF1F0A0FB08016FF070
:102FA0000F0000EA5106FEF765F9616868434900C1
:102FB000B0FBF1F7FEF75EF9616868434900B0FBCA
:102FC000F1F0A0FB08014809642100FB11703221D7
:102FD00001EBC000A0FB08014FF4F87000EA1110EB
:102FE00000EB0609FEF746F9616868434900B0FB4B
:102FF000F1FA07250326012735E0FEF73BF9616862
:10300000192568438900B0FBF1F0A0FB08016FF0BF
:103010000F0000EA5106FEF72DF961686843890048
:10302000B0FBF1F7FEF726F9616868438900B0FB51
:10303000F1F0A0FB08014809642100FB1170322166
:1030400001EB0010A0FB0801F02000EA511000EB9A
:103050000609FEF70FF9616868438900B0FBF1FAD1
:103060000F2504260227FEF705F9D4E900231921CC
:10307000484303FA07F1B0FBF1F0A0FB080148094F
:10308000642100FB11A0B0403230A0FB080105EA2A
:10309000511040EA09009060BDE8F08740F2E81066
:1030A000C2F20000FEF772BEFEE700008AB040F2F6
:1030B0000008C4F20208FDF787FFFFF779FA00273E
:1030C00043F630040597CDE90377CDE90177009702
:1030D000C4F20204206808F5C05640F001002060E8
:1030E00020684FF4807100F0010000900098009774
:1030F0002068012240F02000206020684FF4807595
:1031000000F0200000900098009720684FF001091F
:1031100040F040002060206800F0400000900098DF
:103120003046FDF70DFFCDE9015901AD3046294686
:10313000CDE90377FDF73AFE4046202100224FF00B
:10314000200AFDF7FDFE08F5A05630464FF4006159
:1031500000224FF4006BFDF7F3FE40462946CDE90F
:1031600001A9CDE90377FDF721FE30462946CDF8C8
:1031700004B0FDF71BFE01972068062140F4001003
:1031800020602068002200F40010019001980E20B9
:10319000FDF788FF0E20FDF773FF40F2E810A8F559
:1031A000DC31C2F200000C234FF4E13280E88600EB
:1031B000C0E90377C0E90537C761FEF7A7FE20B174
:1031C000EFF3108072B600BFFEE740F22810A8F5BA
:1031D000FE31C2F2000041F26702CDE90677CDE987
:1031E0000477C0E90017C0E9027207618761FEF742
:1031F00043FD20B1EFF3108072B600BFFEE7602000
:1032000001900020CDE90200059040F22810C2F2A2
:10321000000001A90022FEF721FC20B1EFF310808D
:1032200072B600BFFEE740F22810C2F2000001A90A
:103230000422FEF713FC20B1EFF3108072B600BF3A
:10324000FEE740F22810C2F2000001A90822FEF7B2
:1032500005FC20B1EFF3108072B600BFFEE740F22C
:103260002810C2F2000001A90C22FEF7F7FB20B1E2
:10327000EFF3108072B600BFFEE740F2E800C2F242
:1032800000004FF0804100244FF0FF32C0E90014ED
:103290000326012501A9C0E9024204618461CDE948
:1032A0000164CDE90354CDE90544CDE907540994FF
:1032B000FEF738FA18B1EFF3108072B6FEE740F26D
:1032C000A810A8F57C41C2F200004FF6FF72C0E9D9
:1032D000001401A9C0E9024204618461CDE90164DE
:1032E000CDE90354CDE90544CDE907540994FEF72F
:1032F00019FA20B1EFF3108072B600BFFEE740F27A
:103300006810A8F5F631C2F200000023532240F203
:10331000E73780E88E0003618361FEF7B3F920B1DF
:10332000EFF3108072B600BFFEE740F2DC00A8F5B4
:10333000E831C2F20000042240F2712380E80E005E
:10334000FDF70AFE18B1EFF3108072B6FEE7FDF745
:103350001FF940F2E81040F25031C2F20000C2F210
:1033600000010122FEF764FE40F26810C2F2000084
:10337000FEF7C8F901F088FAFEE70000B0F9000096
:10338000704700002DE9F041DDF81CE0BEF1200F90
:1033900005D884460EF10700C0B2814202D2002057
:1033A000BDE8F08145F2AA51ACF800100EF102011F
:1033B000BEF1000F8CF802108CF803208CF804305A
:1033C0003FD00699BEF1040F0EF0030301D2002294
:1033D0001EE00EF03C0400220CEB0205002914BF95
:1033E0008E5C00266E7100291ABF8E187678002632
:1033F000AE7100291ABF8E18B6780026EE7100292A
:103400001ABF8E18F6780026043294422E72E3D149
:10341000BBB100290CF1050414BF8D5C0025012B04
:10342000A5540ED0002902F1010514BF4E5D0026FF
:10343000022B665505D00232002914BF895C002199
:10344000A1540EF103034AF201015FFA83F803F07D
:103450007E04ACF102034FF6FF7500BF1F795E7961
:103460007D4081EA5507EA0708BF6F0881EA5702E5
:10347000FD0708BF7A0881EA5205D70708BF55083B
:1034800081EA5502EF0708BF6A0881EA5205D707AB
:1034900008BF550881EA5502EF0708BF6A0881EAAC
:1034A0005205D70708BF550881EA5502EF0708BF44
:1034B0006A08724081EA5205D60708BF550881EABA
:1034C0005502EE0708BF6A0881EA5205D60708BF11
:1034D000550881EA5502EE0708BF6A0881EA5205DD
:1034E000D60708BF550881EA5502EE0708BF6A08EB
:1034F00081EA5206D50708BF560881EA5605F20749
:1035000008BF7508023C03F10203A7D15FEAC87245
:1035100003D1E9B2C5F307222CE01A796A4081EAA7
:103520005203D40708BF530881EA5302DC0708BFDF
:103530005A0881EA5203D40708BF530881EA5302AC
:10354000DC0708BF5A0881EA5203D40708BF5308B2
:1035500081EA5302DC0708BF5A0881EA5203D40704
:1035600008BF530881EA5302D90708BF5A08D1B2ED
:10357000C2F307220CEB0E0359719A71BDE8F0817A
:103580000378052B00F2AE802DE9F047DFE803F069
:1035900003270D170831AA2904BF0121017025E076
:1035A00042780244D1700521FEE0A1F1230212F11C
:1035B000220F00F29B80016B01310163F3E042783E
:1035C000837887180132D6B242705A1CD2B2964222
:1035D000F97024BF042101700020BDE8F087AA29FA
:1035E00004D0552940F0DC800221DDE00020BDE858
:1035F000F087437800F1030C90F802801CF803E098
:103600004FF6FF774AF201040CEB0305B8F1000F07
:10361000697073D008F1010323F00103C3F10009BD
:103620006FF0010543195E7993F806A07E4084EAA5
:103630005607F30708BF770884EA5703FE0708BF59
:103640007B0884EA5306DF0708BF5E0884EA560356
:10365000F70708BF730884EA5306DF0708BF5E0850
:1036600084EA5603F70708BF730884EA5306DF07A6
:1036700008BF5E0884EA5603F70708BF730883EAA9
:103680000A0384EA5306DF0708BF5E0884EA56038C
:10369000F70708BF730884EA5306DF0708BF5E0810
:1036A00084EA5603F70708BF730884EA5306DF0766
:1036B00008BF5E0884EA5603F70708BF730884EA68
:1036C0005306DF0708BF5E08F30705F1020584EA29
:1036D000560709EB050308BF77080233A2D102356C
:1036E0003B460DE000210170002070478170C170E1
:1036F00040F2031101800020BDE8F087002300257F
:103700005FEAC8764FEA01212AD11CF805307B40D8
:1037100084EA5305DE0708BF5D0884EA5503EE0717
:1037200008BF6B0884EA5305DE0708BF5D0884EA1A
:103730005503EE0708BF6B0884EA5305DE0708BF90
:103740005D0884EA5503EE0708BF6B0884EA530559
:10375000DE0708BF5D0884EA5503EC0708BF6B0865
:1037600041EA0E0100279942077013D101791170C7
:1037700041795170A8F102010B06917038D0C9B29D
:1037800020290B4628BF2023042903F003010FD270
:1037900000231EE0C16A0131C1620020BDE8F0874C
:1037A000416B01314163002101700020BDE8F087C9
:1037B00003F03C07002300BFC618B579D418E570A4
:1037C000F57904332571357A9F426571767AA67151
:1037D000F2D169B1D71C03EB0C02D6780129FE5453
:1037E00006D03B44177902295F701CBF517999704C
:1037F000816A013181620120BDE8F08700210180EA
:103800008170C0E90A11C0E90C117047018070474E
:10381000016070472DE9F04381B00E4646F2D04179
:10382000C2F200010D6840F23421C2F20001D1F869
:10383000008040F23C2140F22C24C2F20001C2F28E
:103840000004D1F8009021680746081D00F064FCD0
:1038500010B1781C0FD027E0206846F2D432C06A3D
:10386000C2F200020121136801FA00F023EA00000D
:103870001060781C18D1BEB146F2A840C2F2000018
:10388000D0E90012236801319A6093682768FB60D1
:10389000276804375F6023680433936022680160FF
:1038A000506101B0BDE8F0832068ED1945602068E3
:1038B00000F1040105D3484601B0BDE8F04300F033
:1038C00065BC404600F062FC46F23440C2F20000A3
:1038D00001688D4238BF056001B0BDE8F08300008B
:1038E00070B500F08DFC46F2D446C2F20006306896
:1038F00018B1BDE8704000F0A7BC46F2D834C2F25F
:103900000004204600F032FC46F2EC35C2F200051D
:10391000284600F02BFC40F23020C2F20000046088
:1039200040F24020C2F2000005600A200C21002273
:1039300001F0B4F900283060DBD003A100F086FD6F
:10394000BDE8704000F080BC546D72510000000072
:1039500046F2C83540F2442A4EF6045846F2BC47B7
:1039600046F2C436C2F20005C2F2000ACEF20008E6
:103970004FF08059C2F20007C2F2000615E000BF06
:1039800000F03EFCF868C468201D00F0C5FB3068FC
:103990000138306028680138286000F055FC206B41
:1039A00000F06AFC204600F067FC28680028E7D198
:1039B000DAF800000228F8D3C8F80090BFF34F8F60
:1039C000BFF36F8FF1E7000008480068006880F3DC
:1039D00008884FF0000080F3148862B661B6BFF328
:1039E0004F8FBFF36F8F00DF00BF000008ED00E0D6
:1039F0002DE9F04F81B0814601F084FD40F228228C
:103A0000C2F2000211688346884244D240F2302458
:103A1000C2F20004206840F2402A0168C2F2000AA3
:103A2000A9B9DAF8001040F22822CAF800000120F3
:103A3000C2F2000221602FE000F0FA0086F82400B4
:103A4000316A30468847206801680029E9D0C0689B
:103A5000C668D0F80080371D384600F05DFB96F848
:103A600024004107E8D5B06900EB0805756010EB4C
:103A70000800366109D200BF316A30468847B06914
:103A80002918054475603661F6D3DAF80000394626
:103A900000F07CFBD4E70020C9F800005846C2F8CB
:103AA00000B001B0BDE8F08F81B00020009040F27E
:103AB0000C00C2F2000000684FF0500181F3118841
:103AC000BFF36F8FBFF34F8F013007D0FEE700BF0A
:103AD000009830B9009820B9009810B900980028D3
:103AE000F6D001B07047000086B040F2302940F2B5
:103AF000402A46F2D44BC2F200090DF10C08C2F282
:103B0000000AC2F2000B02ACD9F800005746066862
:103B100026B1C068D0F800A002E000BF4FF0000A54
:103B200000F008FF4046FFF763FF039911B101F071
:103B3000ABFE55E0054656B3AA4528D801F0A4FED1
:103B4000D9F80000C068C668301D019000F0E4FAA2
:103B500096F8240041070DD400F0FA0086F82400FE
:103B60003BE000BFA5EB0A0181422ED3316A30460B
:103B70008847A246B069366100EB0A04AC42746023
:103B8000F0D9554523D254454846EFD220E00EB136
:103B9000002204E038680068B0FA80F04209DBF8DF
:103BA0000000AAEB050100F0E1FC01F06DFEBA4651
:103BB000B8B94EF60450CEF200004FF080510160CB
:103BC000BFF34F8FBFF36F8F0BE0384600E04846DE
:103BD0000068019900F0DAFA02AC316A3046884791
:103BE000BA460021DBF80000CDE90411039107E09B
:103BF0004A461068294600F0C9FA00BFDBF8000009
:103C00004146002201F02EF900283FF47DAF0398D1
:103C10000028F3D4059E002EF0D0706910B1301D3D
:103C200000F07AFA2046FFF7E3FE039901390829EC
:103C3000E4D80746DFE801F00505392557050539C1
:103C4000250096F82410049AB06941F0010386F823
:103C500024308318354645F8043FBB42366105D908
:103C60009742C5D293424A4604D2C2E7BA1A824268
:103C70005246BED34A071FD401F0FA0086F824004A
:103C800041E096F8240040F00101049886F82410E1
:103C9000B061E0B33844314641F8040FB8425046B1
:103CA000366188BF48460068A5E796F8240000F012
:103CB000FE0086F82400A1E70499014408E000BF53
:103CC000791A814217D3316A30468847B069214654
:103CD0000C18BC4274603661F2D98F420DD28C420E
:103CE0004846F0D20AE096F824008107DFD4304637
:103CF00000F0C2FA82E7504600E0484600682946D4
:103D000000F044FA02AC316A3046884776E74FF05B
:103D1000500080F31188BFF36F8FBFF34F8F00BF48
:103D2000FEE70000F0B581B0044600F069FA94F9AE
:103D30004560012E0FDB04F1240500BF286850B157
:103D4000284601F025FD002818BF00F045FD70B29F
:103D5000013E0128F2DCFF2684F8456000F074FA89
:103D600000F04EFA94F94470012F0EDB04F11005B7
:103D7000286850B1284601F00BFD002818BF00F05C
:103D80002BFD78B2013F0128F2DC84F8446001B0D9
:103D9000BDE8F04000F058BA2DE9F04100F1080408
:103DA000092C01D200240AE010F0070107D00939DC
:103DB0008C429ABF20F0070000F11004002400F0AC
:103DC000B9FD40F23820C2F20000036846F2284CE8
:103DD000C2F2000C23B1DCF80010012C26DA7AE0E4
:103DE00040F2B932C2F20002D11D530702F5C043BE
:103DF00018BF21F0070246F2A041C2F200010027DD
:103E0000C1E9002723F00701A1F10803036041E99C
:103E10000277991A036846F23040C2F20000C2E904
:103E200000310160CCF80010012C54DB8C4252D8D8
:103E300046F2A040C2F20000006840F2B93EC2F271
:103E4000000E70451ED345F6FF727244904219D899
:103E50004568A5421FD20268FAB145F6FF750EEB20
:103E6000050800BF724562D30746104642455ED83A
:103E700045680026A54238BF012613D20268002AF1
:103E8000F0D10FE04FF0500080F31188BFF36F8F37
:103E9000BFF34F8FFEE7002600E0012646F2A04761
:103EA000C2F20007984216D03A6802F1080373453F
:103EB00023D345F6FF72724493421ED802683A60DB
:103EC0002EB34FF0500080F31188BFF36F8FBFF314
:103ED0004F8F00BFFEE701F0D7FC00F033F9002060
:103EE000410708BFBDE8F0814FF0500080F3118812
:103EF000BFF36F8FBFF34F8FFEE74FF0500080F39B
:103F00001188BFF36F8FBFF34F8F00BFFEE72E1BEB
:103F1000102E16D90519690715D04FF0500080F3FF
:103F20001188BFF36F8FBFF34F8F00BFFEE74FF0D5
:103F3000500080F31188BFF36F8FBFF34F8F00BF26
:103F4000FEE7446804E0C5E90026DCF800103D60A7
:103F500046F23042C2F200021D461368091B994224
:103F600046F23C43CCF8001038BF1160C2F20003A7
:103F70001F6844F000410022C0E90021781C18604D
:103F800001F082FC2846ABE7034643F6A92021F066
:103F90000101C0F600004FF0807C03E903106FF0D0
:103FA0000201A3F1440043E909127047B0B588B09B
:103FB00040F27C30C2F2000000780DF10F058DF860
:103FC0000F0040F2F320C2F2000000782C1D8DF8A3
:103FD000100043F20C00ADF811000020FCF726FCA5
:103FE00001462046FFF712FC0120AC1DFCF71EFC29
:103FF00001462046FFF70AFC002005F10804FCF703
:10400000FBFB01462046FFF703FC012005F10C04F1
:10401000FCF7F2FB01462046FFF7FAFBFEF75CF9DE
:1040200040F2F121C2F200010978112461F382000B
:1040300040F2B831C2F200010A7802308DF81F0058
:10404000501C087040F28830C2F20000302110236A
:10405000CDE90054FFF796F950B1024640F2E8105E
:1040600040F28831C2F20000C2F20001FEF724F8EB
:1040700008B0B0BD48B14FF0500080F31188BFF3D5
:104080006F8FBFF34F8F00BFFEE770B540F22C2556
:10409000C2F2000528680E46C06C52B348BB46F217
:1040A000CC30C2F20000016814460131016000F01A
:1040B000A7F82868C06C20B100F0C6F801F0E4FB56
:1040C00017E02868012180F8501000F0BDF8204664
:1040D0000121FFF79FFB01F0D7FB50B94EF60450CA
:1040E000CEF200004FF080510160BFF34F8FBFF35D
:1040F0006F8F00F085F82868C46C2CB12968002007
:10410000002E08BF601EC8642868002180F8501087
:1041100000F09AF8204670BD0169D0E90132D1F86B
:1041200004C09A608445536008BF4A600B6800224F
:104130000261581E0860704746F2C430C2F20000A7
:10414000006870474FF0500080F31188BFF36F8F05
:10415000BFF34F8FFEE700004FF0500080F311884F
:10416000BFF36F8FBFF34F8FFEE700004FF0FF31BB
:10417000024642F8081F0021C0E90322C0E90012EC
:1041800070470000002101617047000010B5D1F8B0
:1041900000C01CF1010213D000F10804626813682A
:1041A000634511D853681C68644510D85A68146870
:1041B00064450ED854682368A6466345EED90AE0E4
:1041C0000269D2F804E006E09646224603E09E46E5
:1041D00001E096461A46C1F804E0CEF808108A605D
:1041E000516002680861511C016010BDDFF80C00CD
:1041F000016841F4700101607047000088ED00E043
:104200004FF0500080F31188BFF36F8FBFF34F8FD3
:1042100040F20C00C2F2000001684A1C026001B1C9
:1042200070474EF60450CEF200000068000608BF4A
:1042300070474FF0500080F31188BFF36F8FBFF3CA
:104240004F8F00BFFEE7000040F20C00C2F20000FA
:10425000016839B10139016018BF7047002080F34F
:10426000118870474FF0500080F31188BFF36F8FB3
:10427000BFF34F8FFEE7000070B5002808BF70BD88
:1042800040F2B935A0F10804C2F20005AC4212D3E5
:1042900045F6FF7129448C420DD850F8041C0029C2
:1042A00013D44FF0500080F31188BFF36F8FBFF32A
:1042B0004F8F00BFFEE74FF0500080F31188BFF32F
:1042C0006F8FBFF34F8F00BFFEE722684AB14FF0F8
:1042D000500080F31188BFF36F8FBFF34F8F00BF83
:1042E000FEE721F0004140F8041C064600F022FBE6
:1042F00046F22841C2F2000156F8040C0A6846F260
:10430000A04CC2F2000C024463460A601968A14244
:104310000AD20B68A3420CD21968A14204D20B68DE
:104320000A46A342F2D301E01A460B46624503D186
:1043300009E00A46624506D0AA4210D345F6FF714D
:1043400029448A420BD851685618A64202D1084423
:1043500014465060211899420BD0194614E04FF0D2
:10436000500080F31188BFF36F8FBFF34F8F00BFF2
:10437000FEE740F23821C2F2000109688B4203D007
:10438000D3E900131844606046F24040A242216025
:1043900018BF1460C2F20000016801310160BDE87D
:1043A000704001F071BA0000064B19680868B0E867
:1043B000F04F80F30988BFF36F8F4FF0000080F358
:1043C000118870472C0200204EF21000CEF200003F
:1043D00000210160816049F23F01C0F202014160A9
:1043E0000721016070470000EFF30580102814D307
:1043F0004EF2F031CEF20001405C46F2B931C2F229
:1044000000010978884208D24FF0500080F31188EB
:10441000BFF36F8FBFF34F8FFEE74EF60C50CEF217
:10442000000046F2BC310068C2F20001096800F4E5
:10443000E060884298BF70474FF0500080F31188C9
:10444000BFF36F8FBFF34F8FFEE70000002868D0E7
:10445000002908BF7047B0B546F25C42C2F20002C4
:104460005368984267D0D368984266D0536998429F
:1044700066D0D369984266D0536A984266D0D36AB0
:10448000984266D0536B984266D0D36B984266D000
:10449000134653F8084FD2F800E0002C14464FF0B2
:1044A000000C18BF6346BEF1000F54F810EF08BFB0
:1044B0001346BEF1000F964618BF64465EF8185FBB
:1044C000002B18BF1C46002D154618BFE64655F8B0
:1044D000203F002C18BFA6461446002B18BF654687
:1044E00054F8283FBEF1000F18BF7546002B134645
:1044F00018BF644653F830EF002D18BF2C46BEF1AC
:10450000000F18BF6346002C18BF23464BBB52F860
:10451000383F002B134608BFC3E90010BDE8B04088
:1045200070474FF0500080F31188BFF36F8FBFF3D7
:104530004F8F00BFFEE7134613E002F1080310E0BF
:1045400002F110030DE002F118030AE002F120036A
:1045500007E002F1280304E002F1300301E002F178
:104560003803C3E90010BDE8B040704770B5154688
:104570000E460446FFF744FE94F84400FF2804BFAB
:10458000002084F8440094F84500FF2804BF002070
:1045900084F84500FFF758FEA06B28B904F1240009
:1045A00031462A4600F03CF92046BDE87040FFF74E
:1045B000B9BB00002DE9F041002855D046F2CC31BE
:1045C000C2F200010A6801320A600968012931D18A
:1045D000064646F2D040C2F20000076840F234209E
:1045E000C2F20000D0F8008040F23C2040F22C24BF
:1045F000C2F20000C2F20004056820680430FFF730
:104600008BFD60B9206846F2D432C06AC2F2000263
:104610000121136801FA00F023EA0000106020680D
:10462000F6194660206800F104010CD32846FFF714
:10463000ADFD13E04FF0500080F31188BFF36F8F92
:10464000BFF34F8FFEE74046FFF7A0FD46F2344030
:10465000C2F2000001688E4238BF066001F014F912
:10466000002818BFBDE8F0814EF60450CEF20000DD
:104670004FF080510160BFF34F8FBFF36F8FBDE8E4
:10468000F0810000F0B581B048B191B14FF0500019
:1046900080F31188BFF36F8FBFF34F8FFEE74FF0AA
:1046A000500080F31188BFF36F8FBFF34F8F00BFAF
:1046B000FEE714460546FFF797FEEFF311804FF033
:1046C000500282F31188BFF36F8FBFF34F8F022325
:1046D00095F8502085F85030EB6C012A03F1010366
:1046E000EB6467D1AA6A29464AB14FF0500080F3C3
:1046F0001188BFF36F8FBFF34F8F00BFFEE746F205
:10470000CC32C2F2000212688AB146F24842C2F2CA
:104710000002D2E9003701F11806BD688A62C1E9DA
:104720000775BE605F1CCB6A6E60176030E04B6936
:10473000D1E90252D3F804E001F1040CAA60E64585
:10474000556008BF5A601A6846F2D436013A1A60BA
:10475000CB6AC2F200064FF0010E32680EFA03F582
:104760002A4340F2442E326003EB8302C2F2000E71
:104770000EEB82056E684D61B768C1E90267C7F844
:1047800004C05EF82270C6F808C0791C4EF82210EA
:1047900040F22C21C2F200010968C96A8B4209D992
:1047A000002C1CBF0121216046F2DC41C2F2000155
:1047B00001220A6080F3118801B0F0BD46F2384151
:1047C000C2F200010968016046F2D041C2F2000164
:1047D000096841607047000046F2DC40C2F2000008
:1047E000012101607047000078B110B50C4640F21D
:1047F0002C21C2F2000109681831FFF7C7FC2046DE
:104800000121BDE81040FFF705B84FF0500080F3DC
:104810001188BFF36F8FBFF34F8F00BFFEE700001B
:1048200040B3B0B540F22C2EC2F2000ED0E900C366
:10483000DEF80040002AE3619C68DEF800502C623C
:10484000DEF8005005F118056560DEF80040054609
:1048500004F118049C60DEF8003098620CF101034A
:1048600018BF4FF0FF31084611462B60BDE8B0403D
:10487000FEF7D0BF4FF0500080F31188BFF36F8F69
:10488000BFF34F8FFEE7000080B586B044F2494089
:10489000C4F24C50029046F22C4E43F651104FF0A9
:1048A000000CC2F2000EC0F6000002A98022002314
:1048B000CDF814C0CDF811C0CDF80DC08DF80CC0E6
:1048C000CDE900CE00F026FC012808BF01F09AF8DF
:1048D000411C25D001281CD14FF0500080F31188D5
:1048E000BFF36F8FBFF34F8F46F23440C2F2000028
:1048F0004FF0FF31016046F29C40C2F200000121FE
:10490000016046F2D040C2F200000021016000F0D8
:10491000ABF845F6AC20C0F60000006806B080BDDC
:104920004FF0500080F31188BFF36F8FBFF34F8FAC
:10493000FEE7000046F2CC30C2F20000016801310F
:104940000160704710B546F2CC30C2F2000000683A
:1049500030B146F2DC40C2F200000121016010BD1E
:1049600046F2DC40C2F20000002140F22C2401603B
:10497000C2F200042068006B216809682268126B8B
:1049800091420FD90168B1F1A53F0BD14168B1F156
:10499000A53F07D18168B1F1A53F03D1C068B0F14F
:1049A000A53F04D0216820683431FFF7D5FB46F2DB
:1049B000D430C2F200000068B0FA80F0C0B2C0F19A
:1049C0001F0040F2442100EB8000C2F2000151F8C8
:1049D000202072B101EB8000416800F108024968B3
:1049E0009142416001D1C1684160C868206020687F
:1049F00010BD4FF0500080F31188BFF36F8FBFF3ED
:104A00004F8F00BFFEE70000EFF30980BFF36F8F09
:104A1000144B1A681EF0100F08BF20ED108A20E911
:104A2000F04F10602DE909004FF0500080F311881D
:104A3000BFF34F8FBFF36F8FFFF784FF4FF000007E
:104A400080F31188BDE8090019680868B0E8F04FE4
:104A50001EF0100F08BFB0EC108A80F30988BFF376
:104A60006F8F70472C02002070B584B04EF200406A
:104A7000CEF200004CF27021C4F20F11D0F80029E0
:104A80004B1C9A4209D14FF0500080F31188BFF3BC
:104A90006F8FBFF34F8F00BFFEE7D0F800298A4227
:104AA00009D14FF0500080F31188BFF36F8FBFF32F
:104AB0004F8F00BFFEE74EF62054CEF2000454F8AC
:104AC000181C44F2A933CA6AC0F600039A4208D0FF
:104AD0004FF0500080F31188BFF36F8FBFF34F8FFB
:104AE000FEE7896B44F60922C0F60002914208D025
:104AF0004FF0500080F31188BFF36F8FBFF34F8FDB
:104B0000FEE700210191017846F2B9328DF80B10D1
:104B1000FF2101700178C2F200028DF803109DF8A8
:104B2000031011F05001117000F08B809DF80310FC
:104B300001F05001502940F08E809DF90310B1F131
:104B4000FF3F64DD0199002508294FF0000106D0E0
:104B500001994FF4E062A2EB012101F4E06146F219
:104B6000BC32C2F2000211609DF80B100170206887
:104B700040F47F002060206840F07F40206044F8CF
:104B8000045CFFF721FC40F20C06C2F2000635601F
:104B9000FFF72CFBD4F8140240F04040C4F8140294
:104BA000FEF712FFFFF7CEFE039530684FF050017D
:104BB00081F31188BFF36F8FBFF34F8F01303AD06D
:104BC000FEE70199013101919DF8031049008DF82C
:104BD00003109DF90310B1F1FF3FB3DC01990131DE
:104BE00001919DF8031049008DF803109DF9031001
:104BF000B1F1FF3FA6DC0199013101919DF803104D
:104C000049008DF803109DF9031000299AD50199E8
:104C1000013101919DF8031049008DF803109DF9B1
:104C20000310B1F1FF3FCCDD8CE7039830B9039856
:104C300020B9039810B903980028F6D0002004B0DA
:104C400070BD4FF0500080F31188BFF36F8FBFF33A
:104C50004F8F00BFFEE74FF0500080F31188BFF385
:104C60006F8FBFF34F8F00BFFEE7000080B54FF09E
:104C7000500080F31188BFF36F8FBFF34F8F00F0A8
:104C800047FC30B14EF60450CEF200004FF0805198
:104C90000160002080F3118880BD0000B8B3A0FB44
:104CA0000123A3BB01FB00F212F1490F2FD870B50D
:104CB000054602F148000E46FFF76EF8044620B3A1
:104CC0002046002E18BF48302060C4E90F56FFF779
:104CD00097FA2068D4E90F12002602FB010301397C
:104CE00001FB0201A663C4E90103FF20E16084F82F
:104CF000440084F8450004F11000FFF737FA04F18E
:104D00002400FFF733FAFFF79FFA204670BD4FF0FB
:104D1000500080F31188BFF36F8FBFF34F8F00BF38
:104D2000FEE700002DE9F04F81B000B31D460446B8
:104D3000D1B1022D02D1E06B012845D10F4690463A
:104D4000FFF752FBEFF3118A4FF0500080F3118808
:104D5000BFF36F8FBFF34F8FA06B022D11D0E16BAC
:104D600088420ED3002078E0206C0028E1D04FF07C
:104D7000500080F31188BFF36F8FBFF34F8F00BFD8
:104D8000FEE794F945B0A06BA66B226C5FFA8BF935
:104D90001AB339464DB3E068FBF7F4FAE168206CCA
:104DA0002268091A9142E16003D2A1684042084496
:104DB000E060A81EB0FA80F040093146002E18BF0E
:104DC00001210840361A1CE04FF0500080F3118892
:104DD000BFF36F8FBFF34F8FFEE7206888B9A068DD
:104DE00000F06EFC0020A0600BE06068FBF7CAFAE0
:104DF000D4E90101226C10448842606001D320682C
:104E00006060701CB9F1FF0FA06310D0FFF794F938
:104E1000584521D9B9F17F0F1AD14FF0500080F3D6
:104E20001188BFF36F8FBFF34F8F00BFFEE754F8B9
:104E3000240F88B1204600F0ABFC0146B8F1000F0A
:104E40004FF0010009D0002918BFC8F8000004E0A5
:104E500009F1010084F8450001208AF3118801B0AE
:104E6000BDE8F08F2DE9F04F83B0029288B115466E
:104E70000446002947D00E4600F030FB98B995B1A2
:104E80004FF0500080F31188BFF36F8FBFF34F8F47
:104E9000FEE74FF0500080F31188BFF36F8FBFF330
:104EA0004F8F00BFFEE7FFF7ABF9D4F838A0BAF197
:104EB000000F34D0226C52B1D4E902313046114493
:104EC000E160994224BF2168E160FBF75BFA54F886
:104ED000100FAAF10101A16270B1204600F058FC48
:104EE00050B14EF60450CEF200004FF080510160F8
:104EF000BFF34F8FBFF36F8F0124FFF7A5F9204653
:104F000003B0BDE8F08F206C0028B4D04FF0500003
:104F100080F31188BFF36F8FBFF34F8FFEE70298C6
:104F2000002800F0AF806846FFF748FCFFF78CF9D7
:104F3000FFF700FDFFF764F994F8440004F124083A
:104F4000FF2804BF002084F8440094F84500FF289F
:104F500004BF002084F84500FFF776F9684602A9EF
:104F600000F092F860B12046FEF7DCFE00F08CFC09
:104F7000FFF746F9A56BFFF767F915BB0024BEE7FD
:104F8000FFF73EF9A56BFFF75FF92DB12046FEF75D
:104F9000C9FE00F079FC14E002994046FFF724FCBA
:104FA0002046FEF7BFFE00F06FFC50B94EF60450ED
:104FB000CEF200004FF080510160BFF34F8FBFF37E
:104FC0006F8FFFF71DF9D4F838A0BAF1000F7FF406
:104FD00071AF4FF00009EB4602AF13E02046FEF739
:104FE000A1FE00F051FCFFF70BF9A56BFFF72CF9C0
:104FF000002DC3D0FFF704F9D4F838A0BAF1000FA0
:105000007FF458AF029800283CD0FFF71DF9FFF756
:1050100091FCFFF7F5F894F84400FF2808BF84F8E6
:10502000449094F84500FF2808BF84F84590FFF7A6
:105030000BF95846394600F027F80028CED1FFF783
:10504000DFF8A56BFFF700F92DB12046FEF76AFEE9
:1050500000F01AFCCEE702994046FFF7C5FB204658
:10506000FEF760FE00F010FC0028C3D14EF604509D
:10507000CEF200004FF080510160BFF34F8FBFF3BD
:105080006F8FB7E7002438E770B538B30C4671B3BB
:105090000546FFF7B5F846F2D04EC2F2000EDEF834
:1050A00000302268501C30D046F2384CC2F2000C5E
:1050B0002946D5E90050DCF80060AE4201D08342B9
:1050C0001FD2181A82421CD9101A2060DCF8000086
:1050D00000240860DEF80000486017E04FF0500040
:1050E00080F31188BFF36F8FBFF34F8FFEE74FF050
:1050F000500080F31188BFF36F8FBFF34F8F00BF55
:10510000FEE700202060012400E00024FFF79CF867
:10511000204670BD2DE9F04F81B097008246384699
:10512000994693460E46FEF737FE002866D00546A0
:105130005420FEF731FE00285DD0DDF82880542190
:105140000446FBF76CF928463946A5222563FBF790
:105150005EF9206B002E42D0317884F83410D9B338
:10516000717884F83510B9B3B17884F8361099B3F2
:10517000F17884F8371079B3317984F8381059B35D
:10518000717984F8391039B3B17984F83A1019B3C8
:10519000F17984F83B10F9B1317A84F83C10D9B137
:1051A000717A84F83D10B9B1B17A84F83E1099B1A2
:1051B000F17A84F83F1079B1317B84F8401059B10D
:1051C000717B84F8411039B1B17B84F84210002919
:1051D0001CBFF17B84F84310002184F84310B8F120
:1051E000080F10D34FF0500080F31188BFF36F8F7A
:1051F000BFF34F8FFEE72846FFF73EF84FF0FF3032
:1052000001B0BDE8F08F00EB8B000438261D20F0C4
:1052100007053046C4F82C80C4F84480FEF7B2FF7E
:1052200004F11800FEF7AEFFC8F10800A06128469F
:1052300051464A4624616462FEF7A6FE291ABBEB7A
:10524000A10F206025D90B98002818BF0460FEF735
:10525000D7FF46F2C430C2F20000016840F22C27AA
:1052600001310160C2F20007396846F29C4A40F2FF
:105270004425C2F2000AC2F20005A1B1DAF800002A
:1052800000285FD13868E16AC06A884298BF3C60F4
:1052900058E04FF0500080F31188BFF36F8FBFF3D9
:1052A0004F8F00BFFEE73C60006801284AD12846C6
:1052B000FEF75CFF05F11400FEF758FF05F128002A
:1052C000FEF754FF05F13C00FEF750FF05F15000DA
:1052D000FEF74CFF05F16400FEF748FF05F178008A
:1052E000FEF744FF05F18C00FEF740FF46F2004850
:1052F000C2F200084046FEF739FF46F21449C2F2F6
:1053000000094846FEF732FF46F24840C2F200006C
:10531000FEF72CFF46F2BC40C2F20000FEF726FF6B
:1053200046F2A840C2F20000FEF720FF40F234200F
:10533000C2F20000C0F8008040F23C20C2F200003F
:10534000C0F8009046F2D030C2F20000016846F288
:10535000D43201310160E06AC2F200020121136817
:105360008140194300EB8000116005EB80014A6821
:1053700061619368C4E90223966055F820205E605D
:10538000511C45F82010FEF75FFFDAF8000078B1F5
:105390003868E16AC06A88420AD24EF60450CEF2FA
:1053A00000004FF080510160BFF34F8FBFF36F8F4C
:1053B000012001B0BDE8F08F2DE9F041D8B121B353
:1053C00046F2CC37C2F200073A6846F2D0430132C7
:1053D0003A60C2F200031A683F68012F1FD10768C4
:1053E0003944BA42016024D2B9424FF0000460D27D
:1053F000914224D85DE04FF0500080F31188BFF354
:105400006F8FBFF34F8F00BFFEE74FF0500080F368
:105410001188BFF36F8FBFF34F8F00BFFEE74FF0D0
:10542000500080F31188BFF36F8FBFF34F8F00BF21
:10543000FEE7B94203D3914201D8002439E040F29B
:105440003420C2F200001E68D0F8008040F23C20F8
:1054500040F22C27C2F20000C2F20007056838684B
:105460008C1A0430FEF758FE60B9386846F2D43220
:10547000C06AC2F200020121136801FA00F023EAB7
:10548000000010603868A4194460386800F1040115
:1054900003D32846FEF77AFE0AE04046FEF776FE82
:1054A00046F23440C2F2000001688C4238BF04600A
:1054B000012400F0E9F910B12046BDE8F0814EF674
:1054C0000450CEF200004FF080510160BFF34F8FC7
:1054D000BFF36F8F2046BDE8F081000046F29C408C
:1054E000C2F200000068002804BF0120704746F2A5
:1054F000CC30C2F200000068B0FA80F040094000F1
:105500007047000046F2D040C2F2000000687047C9
:105510002DE9F04F46F2CC30C2F20000006848B1ED
:1055200046F24440C2F200000168013101600020EF
:10553000BDE8F08F46F2D040C2F20000016811F1E0
:105540000108C0F800802DD340F23420C2F20000E0
:10555000026812684AB14FF0500080F31188BFF31F
:105560006F8FBFF34F8F00BFFEE740F23C23C2F2C4
:10557000000302681F6807601A6046F23842C2F2F0
:105580000002136801331360026812681AB10068E0
:10559000C068006801E04FF0FF3046F23442C2F2CA
:1055A0000002106046F23441C2F20001086840F285
:1055B000442E8045C2F2000E01D2002069E040F284
:1055C000342AC2F2000ADAF800000068002855D038
:1055D00046F2D43B4FF00109C2F2000B002024E058
:1055E000F96ADBF8002009FA01F31A43CBF800202E
:1055F00001EB81020EEB82035E687B61B568C7E94F
:105600000265B4605EF822606C60731C4EF8223054
:1056100040F22C22C2F200021268D26ADAF800309C
:10562000914288BF0120196861B3DAF80030DB6865
:10563000DF683C4654F8043F984525D37B69D7E999
:105640000265D3F804C0B560A4456E6008BF5D6014
:105650001E68BD6A013E002D1E60C1D0D7E9071348
:105660006A6807F118068B60B242596008BF6B6028
:10567000296800220139BA622960B1E74FF0FF338F
:10568000002005E04FF0FF3346F23441C2F2000142
:105690000B6040F22C21C2F200010968C96A01EBDB
:1056A00081015EF82110012946F2DC41C2F20001BD
:1056B00088BF01200968002918BF0120BDE8F08FCC
:1056C000002804BF0020704740F22C21C2F20001E4
:1056D0000968884209D04FF0500080F31188BFF369
:1056E0006F8FBFF34F8F00BFFEE7816C002944D05E
:1056F0004A1E014682644FF000003DD1CB6A4A6CDD
:10570000934208BF704770B50E1D30460D46FEF738
:1057100003FD46F2D43C2946C2F2000C48B9C86ADF
:105720000123DCF8005003FA00F025EA0000CCF871
:1057300000004B6CC3F10800CB6288610120DCF8EB
:10574000005000FA03F22A43CCF8002040F2442C27
:1057500003EB8302C2F2000C0CEB82056B684D6117
:105760009C68C1E902349E605CF822306660591C76
:105770004CF82210BDE8704070474FF0500080F3A5
:105780001188BFF36F8FBFF34F8F00BFFEE700009C
:10579000C068C06848B3B0B5826AD0E90713D2F8D0
:1057A00004E000F1180C8B60E645596008BF5360B7
:1057B000136800218162591E116046F2CC31C2F299
:1057C00000010968D9B146F24841C2F20001D1E9AD
:1057D000002381629D68C0E90735C3F808C0531CE7
:1057E000C26AC5F804C00B603AE04FF0500080F385
:1057F0001188BFF36F8FBFF34F8F00BFFEE7426981
:10580000D0E90213D2F804E000F1040C8B60E64505
:10581000596008BF5360116846F2D43401391160F1
:10582000C26AC2F200044FF0010E21680EFA02F3C0
:10583000194340F2442E216002EB8201C2F2000EB5
:105840000EEB8104636844619D68C0E90235C3F8CA
:1058500008C05EF82130C5F804C0581C4EF821007D
:1058600040F22C20C2F200000068C06A8242BDE80B
:10587000B04091BF002046F2DC41C2F2000101209D
:1058800088BF0860704700002DE9F04F81B0FEF737
:10589000B7FC46F2CC30C2F20000016859B1016891
:1058A00001390160006880B10024FEF7CDFC20467C
:1058B00001B0BDE8F08F4FF0500080F31188BFF3C6
:1058C0006F8FBFF34F8F00BFFEE746F2C430C2F2C6
:1058D000000000680028E7D046F2484AC2F2000AF9
:1058E000DAF8001046F2DC4940F22C280029C2F216
:1058F0000009C2F2000860D046F2D43B40F24424D2
:105900004FF0000C4FF0010EC2F2000BC2F2000487
:10591000DAF80C10CE68B76AD6E907057A6806F19E
:1059200018018A428560686008BF7D603868C6F8E3
:1059300028C0013838607569D6E902216868371DCA
:10594000B84291604A6008BF6960286801382860E1
:10595000F06ADBF800100EFA00F21143CBF80010E9
:1059600000EB800104EB810255687261AB68C6E907
:1059700002535F6054F82130AF605A1C44F8212074
:10598000D8F80010C96A884288BFC9F800E0DAF880
:1059900000000028BCD140F23420C2F200000168AF
:1059A000096819B10068C068006801E04FF0FF3075
:1059B00046F23441C2F20001086046F24444C2F2A9
:1059C0000004266856B10127FFF7A2FD002818BF82
:1059D000C9F80070013EF7D100202060D9F800001E
:1059E00000283FF461AFD8F800004EF60450CEF224
:1059F00000004FF080510160BFF34F8F0124BFF3CF
:105A00006F8F52E780B582B0FDF76AFF46F2D4404F
:105A1000C2F200000068A8B146F2D84C43F6E92073
:105A2000C2F2000C4FF0020EC0F600000AA14FF4C3
:105A300080720023CDE900ECFFF76CFB00281CBF4F
:105A400002B080BD4FF0500080F31188BFF36F8F1C
:105A5000BFF34F8FFEE700BF546D72205376630093
:105A6000F1EE100A4FF6FF71C0F2C03120EA0100DA
:105A700040F04070E1EE100A7047000000000000A6
:105A800000000102030406070809000000000102EB
:105A900003040000000000000800000004000000F3
:105AA0000C0000000006101600061016070000008B
:105AB000D05A00080000002010000000EC0100088F
:105AC000E05A000810000020D06A00000C02000814
:105AD0000024F4000100000010000000AAAAAAAAF5
