:020000040800F2
:1000000000000220D54F0008910500089505000862
:10001000990500089D050008A105000800000000E2
:10002000000000000000000000000000A50500081E
:10003000A905000800000000AD050008B105000892
:1000400025500008255000082550000825500008BC
:1000500025500008255000082550000825500008AC
:10006000255000082550000825500008255000089C
:100070002550000825500008E1050008255000081B
:10008000255000082550000825500008255000087C
:10009000255000082550000825500008255000086C
:1000A000255000082550000825500008255000085C
:1000B000255000082550000825500008255000084C
:1000C000255000082550000825500008255000083C
:1000D000255000082550000825500008C9050008D3
:1000E000255000082550000825500008255000081C
:1000F000255000082550000825500008255000080C
:1001000025500008255000082550000825500008FB
:10011000255000082550000825500008D505000886
:1001200025500008255000082550000825500008DB
:1001300025500008255000082550000825500008CB
:1001400025500008255000082550000825500008BB
:1001500025500008255000082550000825500008AB
:10016000255000082550000825500008255000089B
:100170002550000825500008255000080000000008
:0801800025500008255000087D
:1001880053B94AB9002908BF00281CBF4FF0FF31F6
:100198004FF0FF3000F00CB8ADF1080C6DE904CE5B
:1001A80004F078FFDDF804E0DDE9022304B07047CD
:1001B800704700BF10B5054C237833B9044B13B111
:1001C8000448AFF300800123237010BD1000002005
:1001D800000000005853000808B5034B1BB1034941
:1001E8000348AFF3008008BD0000000014000020A1
:1001F80058530008084B02689A4200D0704710B55F
:10020800064C207801F0C4F921460548BDE81040A5
:10021800012204F0DFBC00BF004800402C00002091
:10022800A0010020034B02689A4200D0704701F0F9
:10023800E5B900BF001400404FF0500383F3118864
:10024800BFF36F8FBFF34F8FFEE700BF4FF0500330
:1002580083F31188BFF36F8FBFF34F8FFEE700BFA3
:1002680072B6FEE730B5002395B0CDE90A33CDE983
:100278000C33CDE90333CDE90533224901930793C4
:10028800086C214A40F080500864096C01F08051E4
:10029800019101990293136843F480431360136832
:1002A80001204FF4803103F48043CDE90801029323
:1002B8004FF480010224CDE90E4102980721022063
:1002C800CDE9120108224FF4A87308A810921193DF
:1002D80003F02EFA08B172B6FEE70F220346CDE905
:1002E80003244FF4A0554FF4805203A80521CDE90B
:1002F8000535079203F008FC08B172B6FEE715B0A1
:1003080030BD00BF0038024000700040000000000F
:1003180080B500248EB003F06DF9FFF7A3FFCDE997
:100328000444CDE90644884D019408942B6B874812
:1003380043F001032B632B6B012213400193019BB4
:1003480002942B6B43F020032B632B6B03F02003E9
:100358000293029B03942B6B43F040032B632B6B9C
:1003680003F0400303934FF48071039B012603F0CD
:10037800A7FD4FF48073754804A9CDE90436CDE98B
:10038800064403F07BFC22467148202103F098FDC7
:10039800224670484FF4006103F092FD20276C4814
:1003A80004A9CDE90644CDE9047603F067FC4FF4CF
:1003B80000636848049304A903F060FC00942B6B65
:1003C80043F400132B632B6B03F4001322460093B2
:1003D80006210E20009B03F047F90E2003F080F958
:1003E8005D48C0E90244C0E9064404615B4C4FF42F
:1003F800E1330C25C0E90043456104F0BBFB08B1BB
:1004080072B6FEE7564C574B0A90CDE90400CDE989
:100418000600CDE90800C4E901002061A06123605D
:10042800204641F26703E36004F02CF908B172B684
:10043800FEE79FED437B06900890024604A92046FC
:100448008DED047B04F0BAF908B172B6FEE7042218
:1004580004A9204604F0B2F908B172B6FEE70822F2
:1004680004A9204604F0AAF908B172B6FEE72046AE
:100478002A4604A904F0A2F9044608B172B6FEE7B8
:1004880001463A4605A804F0CAFD374806964FF0DB
:100498008043036003254FF0FF3304A9C0E90144FA
:1004A800046184610A96C360049504F007F9044660
:1004B80008B172B6FEE73A46214605A804F0AFFD3A
:1004C8002A482B4B036004A94FF6FF73C0E9033495
:1004D800C0E901440495846106960A9604F0EEF892
:1004E800034608B172B6FEE72248234C0361532144
:1004F80040F2E732C0E90041C0E90232836104F00A
:10050800A5F808B172B6FEE71C481D49042240F25E
:10051800712380E80E0004F02FFD08B172B6FEE7E3
:1005280001F0A2F817490C48012204F053FB1148C6
:1005380003F010FF01F02AFDFEE700BFAFF30080D3
:10054800600000000000000000380240001802406F
:100558000000024000140240A001002000480040B2
:10056800BC00002000040040FC0000203C000020EB
:10057800000401407C0000200014004030000020EE
:10058800003000402C000020704700BFFEE700BF8D
:10059800FEE700BFFEE700BFFEE700BF704700BFF1
:1005A800704700BF704700BF08B503F039F801F085
:1005B800D9FE012800D108BDBDE8084002F080BD81
:1005C800014804F003BC00BFA0010020014803F06B
:1005D80023BF00BF7C000020014803F05BBD00BFC3
:1005E8003C01002082B00C4B002100915A6C42F46F
:1005F80080425A645A6C02F480420092009A019137
:100608001A6C42F080521A641B6C03F080530193F9
:10061800019B02B0704700BF00380240284B0268B7
:100628009A4200D0704770B588B003F5F8330026B9
:1006380000961A6C234D42F480221A641A6C02F454
:1006480080220092009A01961A6B42F002021A6305
:100658001B6B022104464FF44060CDE9020103F010
:10066800020301200321CDE9040101931648019AF0
:10067800072302A9069303F001FB144A6E624FF0A8
:100688000063C5E90023284640224FF48063C5E98A
:100698000226C5E90566C5E907662B6103F014FC67
:1006A80058B92563002205212720AC6302F0DCFF3E
:1006B800272003F015F808B070BDFFF7D1FDF0E76B
:1006C800004800403C0100200004024058600240FD
:1006D80010B5144A016888B000239142049301D0F0
:1006E80008B010BD02F50D320093116C0E480224BB
:1006F80021431164116C2140009100990193136BFF
:1007080023431363136B059423400193332202A9F7
:100718000223CDE902230694019B03F0AFFA08B047
:1007280010BD00BF000400400004024000000000AB
:1007380000B502688DB00023B2F1804FCDE90633D1
:10074800CDE908330A9305D035498A423AD00DB02D
:100758005DF804FB02F50E320193116C41F00101C2
:100768001164116C01F00101019101990293116B5F
:1007780041F001011163116B01F00101029102992D
:100788000393136B43F002031363136B9FED207BFA
:100798004FF40040022103F00203CDE90601039360
:1007A80006A901231F48039A0A938DED087B03F0DD
:1007B80065FA08231C48069306A903F05FFA0DB0F2
:1007C8005DF804FB194A0493506C40F00200506431
:1007D800506C00F00200049004980593136B1448C1
:1007E8009FED0D7B43F004031363136B8DED067BC4
:1007F8009FED077B03F00403059306A903238DED02
:10080800087B059A0A9303F039FA0DB05DF804FBEA
:100818000100000002000000C0000000020000000B
:100828000004014000000240000402400038024079
:10083800000802400E4B02689A4200D0704700B58B
:1008480083B003F5093300220192196C41F02001AD
:1008580019641B6C03F02003019306213720019BC8
:1008680002F002FF372003B05DF804EB02F038BF56
:1008780000140040B0F90000704700BF0B1201706F
:1008880043707047016070470023C0E90A33C0E92C
:100898000C330380837070472DE9F04103780446D8
:1008A800052B00F28280DFE803F02F343E47550322
:1008B800637823442546197193F8038015F8027F5D
:1008C80048EA0128E61C3A493E444FF6FF7315F8FA
:1008D800010F4FF0080C434043F3000E0EEA010EDF
:1008E8000CF1FF3C8EEA53031CF0FF0C9BB2F3D1D2
:1008F800B542ECD1434584F800C03CD0E36A0133EB
:10090800E3620020BDE8F081AA2904BF0123237017
:10091800F7E7552946D0AA29F3D0636B00220133A3
:1009280063632270EDE78B1E202B19D9236B0022FD
:10093800013323632270E4E763785A1C2344D2B25C
:100948006270D970A3780133DBB29A42D9D30423F9
:100958002370D6E7637823440522D9702270D0E744
:100968004FF0000361F3070361F30F2340F2031212
:1009780063802280C5E7BB1EA1881180DBB293701B
:100988005BB1F91EA01D631D023250FA81F113F804
:10099800010F02F8010F8B42F9D1A36A0120034429
:1009A800A362AFE702232370ABE700232370A8E715
:1009B80001A0FFFF70B59DF81450049C202D38D875
:1009C8008646E81D884234D88EF8043045F2AA538A
:1009D800AEF80030AB1C8EF803208EF8023065B3F9
:1009E8000EF1040223462E192CB3197802F8011FC0
:1009F80001339E42F8D1EE1C0EF1010C104C6644F6
:100A08004FF6FF731CF8011F08224B4043F3000107
:100A18002140013A81EA530312F0FF029BB2F5D15B
:100A2800B445EFD1AE441A0A8EF805308EF8062088
:100A380070BD002070BD2146D8E70326DCE700BF63
:100A480001A0FFFF2DE9F047394D3A4F2B68DFF839
:100A5800F880DA6A002488B05C63DA6A9C63DA6A30
:100A6800DC63DA6A1C642146284603F083FC04210F
:100A7800284603F07FFC0821284603F07BFC0C2164
:100A8800284603F077FCCDE905442B4D01940794E3
:100A98002B6B012633432B632B6B33400193019B54
:100AA80002942B6B43F020032B632B6B049603F00B
:100AB800200302934FF0200A03A93846029BCDF881
:100AC8000CA04FF4006903F0D9F803A94046CDF80B
:100AD8000C9003F0D3F822465146384603F0F0F95B
:100AE80022464946404603F0EBF9CDE90344CDE9F7
:100AF8000544009407942B6B33432B632B6B3340D3
:100B08002246009331463846009B03F0D9F903A9E1
:100B18003846CDE90366CDE9054403F0AFF8074947
:100B2800074A084B0C7014601C7008B0BDE8F087C9
:100B3800BC0000200000024000380240E80100200C
:100B4800E4010020E00100200014024008B5012261
:100B58001146034803F0B4F9024B01221A7008BD8C
:100B680000000240E801002008B5002203480121E6
:100B780003F0A6F9024B00221A7008BD00000240DB
:100B8800E8010020014B1878704700BFE8010020F9
:100B980010B50F4B044622460E481C70202103F066
:100BA8008FF90D4822464FF4006103F089F904B12A
:100BB80010BD0A4B0A4A1B681480D96A5C63D96A5B
:100BC8009C63D96ADC63D96A54801C6410BD00BF79
:100BD800E00100200000024000140240BC00002098
:100BE800E4010020012826D8684B694A1B782DE9C2
:100BF800F04104466748166850F82470002B43D02B
:100C0800654B8B42B8BF0B46B3F57A7F1D46A8BF2C
:100C18004FF47A75A8B2431E4E2B0DD8F36A002FF5
:100C280043D177635D4BF26A53F82430002B6FD1C0
:100C38007363002523E0704700F14F039BB24E2BEE
:100C4800ECD900293ADBE9D0F36AE91703F1010886
:100C580003FB0111A8FB050319444FF47A72002322
:100C6800FFF78EFA404528BF4046002F49D17063F0
:100C78004A4BF26A53F82430002B39D17363484B3E
:100C880023F81450BDE8F081F26A002F64D177632D
:100C9800424BF26A53F82430002B54D17363404B13
:100CA800002223F81420BDE8F081042F4FF0000340
:100CB80060D0082F0CBFF3633364B3E74042F36A94
:100CC80080B2002F36D17763F76A344B0137A0FB27
:100CD800070153F824804FF47A720023FFF750FA83
:100CE800874228BF0746B8F1000F1AD17763C6E7D5
:100CF800042B48D0082B4FF000030CBFF363336478
:100D0800BDE7042F3DD0082F0CBFF0633064AFE778
:100D1800042B2CD0082B4FF000030CBFF363336473
:100D280087E7B8F1040F20D0B8F1080F0CBFF763BC
:100D38003764A4E7042F4FF0000314D0082F0CBF2A
:100D4800F3633364C0E7042B18D0082B4FF000037B
:100D58000CBFF3633364A2E7042F0DD0082F0CBF38
:100D6800F363336494E7B363AEE7B76387E70023BD
:100D7800B3635EE7B36355E7B36389E70023B363FF
:100D88008DE7B06374E70023B36378E7E0010020E0
:100D9800BC0000207853000818FCFFFF70530008BF
:100DA800E4010020164B174A1B6830B5164D174C46
:100DB80002F1080E4FF0000CD96A52F8040B013109
:100DC80090B95963D96A54F8040B013128B95963A9
:100DD800964525F802CBEFD130BD04280BD0082862
:100DE8000CBFD9631964F3E7042806D008280CBFA0
:100DF800D9631964E6E79963EAE79963E2E700BF14
:100E0800BC00002078530008E4010020705300085B
:100E1800074B08491B680022D86A5A63D86A9A6344
:100E2800D86ADA63D86A0A801A644A80704700BFB1
:100E3800BC000020E401002038B50E4D0E4C3C21CA
:100E4800284603F0BDFA3C21204603F0B9FA0B4AC4
:100E58000B480C492D6824680023138053800A4AE4
:100E68006B62C2E90033636203800B8043804B806E
:100E780038BD00BFFC0000203C000020F801002025
:100E880000020020FC010020F001002030B482B0F4
:100E98000190002851D007EE900ADFED376A374BF2
:100EA80037491B68374A586A0B881468364DF8EE7C
:100EB800677A80B286EEA77AC31A1BB21C442B80CD
:100EC8001460088007EE903ADFED306AF8EEE77AB2
:100ED80067EEA67ADFED2E6A67EE877AF4EEE67A99
:100EE800F1EE10FA2CDD47F6FF732A484C88038090
:100EF800294B9FED266A1B68DFED256A5B6A9BB26A
:100F08004B801B1B1BB207EE903AF8EEE77A51684C
:100F18006B8067EE867A194467EE877A5160F4EE43
:100F2800E67AF1EE10FA14DC9FED1C7AF4EEC77A3B
:100F3800F1EE10FA13D51A4B438002B030BC70475B
:100F4800DFED166AF4EEE67AF1EE10FA0DD5144BE1
:100F5800CBE747F6FF73438002B030BC7047FDEE25
:100F6800E77A17EE903A1BB2F5E7FDEEE77A17EE4F
:100F7800903A1BB2B9E700BF00007A44FC00002099
:100F880000020020F0010020FC010020E9016B3E76
:100F980000FEFF46F80100203C000020000000C7CA
:100FA8000080FFFF01289ABF024B33F91000002090
:100FB800704700BFFC01002001289ABF024B33F99B
:100FC80010000020704700BFF801002001280FD84A
:100FD800084B9FED097A03EB8003D3ED007AF8EE16
:100FE800E77A67EE877AFDEEE77A17EE900A7047A0
:100FF80000207047F0010020E9016B3E024B002001
:101008000021C3E900017047F001002008B5044C35
:101018004FF47A7000F086FF204603F0D1FFF7E71F
:101028003000002010B5264B264A1978127888B06F
:1010380043F20C0300208DF80D20ADF80E308DF82A
:101048000C10FFF7B9FF014604A8FFF717FC0120B1
:10105800FFF7B2FF01460DF11200FFF70FFC002069
:10106800FFF7B4FF014605A8FFF70CFC0120FFF7C6
:10107800ADFF014606A8FFF705FCFFF783FD1249FF
:10108800124B0A7803AC00941B78023040EA8300C4
:1010980002F1010C112301938DF81C0081F800C0A6
:1010A8000B4810233021FFF785FC08B908B010BDA4
:1010B80002460749074803F0B7FD08B010BD00BF56
:1010C8005902002058020020440200204C0200204F
:1010D80014020020A001002000B583B000F0BCFF7E
:1010E80001900A2101A800F0BFFE0A20FFF7CEFEFA
:1010F800F7E700BF2DE9F843374FDFF8FC90DFF83A
:10110800FC802DED068B9FED35AADFED359A9FED1E
:10111800359ADFED35AA4FF0FF320121002001F0AA
:1011280093F93B78032BF6D0304EDFED318A9FEDF3
:10113800318A0025284639F81540FFF73DFF24B2CB
:10114800241A07EE904AB6EC017AF8EEE77AA7EE91
:101158008A7AB4EEE97AF1EE10FA24DCB4EE497A30
:10116800F1EE10FA48BFB0EE497AF0EE476AE7EEC2
:10117800A86A4FF47A7306ED017AF4EEC86AF1EEC4
:1011880010FA0BDCF4EEEA6AF1EE10FAA3F5FA6352
:1011980004D4FDEEE66A16EE903A1BB228F8153034
:1011A80025B90125C6E79FED0E7ADEE73B78022BCD
:1011B80005D03B78012BAED1FFF72AFEABE7B8F894
:1011C8000010002009B2FFF70DFDB8F80210012049
:1011D80009B2FFF707FD9EE759020020CDCC4C3D30
:1011E8000000C8430000C8C300007AC404020020FD
:1011F8009A99993E00007A44540200205002002037
:101208002DE98048634E644FDFF8A881DFF8A8B164
:10121800DFF8A8A1614CDFF8A891614D8FB0306864
:10122800322205A901F076FB012809D023682A6833
:101238009B1A312BF3D923682B60FFF7F3FEEEE7F7
:101248009DF81520531E102B24D801A151F823F026
:101258005F130008511300081B130008DF12000871
:10126800D91200089D120008351200089D120008C6
:101278009D1200089D1200089D1200089D1200088A
:101288009D1200089D1200089D1200089D1200087A
:10129800D312000804AB8DF81020009399F80020B1
:1012A80040480223019301238DF81130D31889F89F
:1012B800003030217F23FFF77DFB0028B6D002469F
:1012C8003849394803F0B0FCB0E7FFF7ABFEADE7AB
:1012D800FFF794FEAAE70020FFF76EFE0028BCBFC8
:1012E800404200B23128A1DC0120FFF765FE00284A
:1012F800BCBF404200B2312898DC2C4A002313704E
:101308008BF80030012388F80030294A23681360DD
:101318008CE7264A012313709BF8003013B9022387
:101328008BF80030FFF73EFD0020FFF731FCFFF798
:101338001BFC00233B807B80AAF80030AAF802300F
:10134800032388F8003071E700233B807B8001236A
:1013580088F800306AE79DF81630032B7FF666AFF1
:101368000DF11700FFF786FA38800DF11900FFF725
:1013780081FA788098F80030012BD8B27FF456AF04
:101388000390FFF7E3FB0398FFF702FC022388F8BA
:1013980000304BE7C8020020540200206002002001
:1013A8001002002014020020A00100204C0200209E
:1013B8005C02002059020020580200205002002040
:1013C800440200202DE9F84F664FDFF8B481DFF8BA
:1013D800B4B1654E654CDFF8B0A1DFF8B091644D4B
:1013E8002DED048BDFED638A9FED639AB7EE088AD3
:1013F8004FF0FF320121002001F026F83A7812B3AD
:1014080098F8002002F0FF01EAB95C4BDBF80020F5
:101418001868121AB2F57A7F40F29D8032780AB9BC
:1014280001223270FFF7BEFC0020FFF7B1FBFFF787
:101438009BFB0022032122806280AAF80020AAF8E0
:10144800022089F80010BAF8002012F4004FBAF808
:10145800002012B218BF524207EE902ABAF80220B2
:1014680012F4004FBAF80220F8EEE77A12B2C7EE8B
:10147800A86A18BF524207EE902AF8EEE77AB0EE53
:10148800497A87EEA86AA6EE887AF2EE006AF0EE4C
:10149800477AE6EE087AF4EEE67AF1EE10FA11DD14
:1014A80032780AB9042232702288C2F3C03101FAB4
:1014B80082F2521022806288C2F3C03101FA82F2AD
:1014C80052106280BAF8002002F5967292B2B2F514
:1014D800167F0AD8BAF8022002F5967292B2B2F5CF
:1014E800167F0ED800222A6082E70020FFF75AFDF7
:1014F800BAF8022002F5967292B228B3B2F5167FB6
:10150800F0D90120FFF74EFD0028EBD12A680132FF
:101518002A602A68B2F5FA7F7FF66AAF32780AB98C
:1015280003223270FFF73EFC0020FFF731FBFFF784
:101538001BFB0022032122806280AAF80020AAF85F
:10154800022089F8001053E7B2F5167FDED9012092
:10155800FFF728FDDAE7B2F5FA7F84BF21806180C2
:1015680071E700BF5A0200205802002054020020F0
:101578004802002000007A44000000005C020020BD
:101588004C02002060020020500200205902002076
:1015980030B583B001460024124A13480194FFF77E
:1015A8007BF908B903B030BD1049114B114A0968DD
:1015B800114D116018680B49234601AA01242C70AB
:1015C80001F040F9019B002BECD04FF0E0234FF0E5
:1015D8008052C3F8042DBFF34F8FBFF36F8F03B052
:1015E80030BD00BF64020020880200206002002095
:1015F800C80200205C0200205A02002000B5164AEA
:1016080016491368086883B00021013301911360FB
:1016180010B101AA00F080FF114A13780133DBB240
:10162800042B0FD81370019B4BB14FF0E0234FF000
:101638008052C3F8042DBFF34F8FBFF36F8F03B0F1
:101648005DF804FB074B1868002111700028EAD0E8
:1016580001AA00F061FFE6E760020020C402002052
:101668000C020020C002002070B52F482F4D304ECC
:1016780082B0FFF709F92F492F48304B304A002430
:101688002C6004600C702F482F49012535700470B8
:101698000C7014801C8054805C80FFF7D3F9FFF72E
:1016A800CBFB22462321082001F0A0F8274B186025
:1016B80080B3274A274928480523CDE90032234625
:1016C800C02200F0C7FA254A254926480423CDE957
:1016D8000032032623464FF4807200F0BBFA2346FB
:1016E800CDE9006420492148C02200F0B3FA23461E
:1016F800CDE900641E491F484FF4A07200F0AAFA11
:10170800CDE900541C491D482346A02200F0A2FA46
:1017180002B070BD4FF0500383F31188BFF36F8F91
:10172800BFF34F8FFEE700BF880200205C02002055
:10173800590200205A020020100200205002002006
:1017480054020020580200204C020020C802002049
:10175800C402002080530008CD130008C0020020F6
:1017680088530008FD10000890530008E110000895
:101778009853000809120008A05300081510000823
:101788001049114BD1F8882042F4700210B4C1F806
:1017980088201A680D4C002042F001021A609860F7
:1017A8001A6822F0847222F480321A605C601A6827
:1017B8004FF0006422F480221A60D8608C605DF8D3
:1017C800044B704700ED00E0003802401030002460
:1017D8002DE9F843294A2A4C2A4B2B4D2768D2F881
:1017E8000080D3F800900446286804300E4601F0C3
:1017F800C9F940B92B682549DB6A01229A400B6870
:1018080023EA02030B60631C16D02B683C195C604A
:101818000BD229684046043101F09CF91C4B1A6828
:10182800A24200D91C60BDE8F88329684846043103
:10183800BDE8F84301F08EB966B92B687A1E5A6084
:10184800002FF2D129684046043101F083F9104B8A
:101858001B68E8E70F4B29681C685A688A602E687D
:10186800286829682D6801341C609468F460043085
:101878000431606091606B61BDE8F8833C0300202F
:10188800F00200203803002008040020EC020020A9
:10189800D4020020F8020020F8B50F4D2B68CBB118
:1018A8000E4F0F4E01F0D6FBFB68DC68201D01F0DF
:1018B80069F93368013B33602B68013B2B6001F009
:1018C800EBFB206B01F0E8FD204601F0E5FD2B68FD
:1018D800002BE7D1F8BD00BF0C0300201003002047
:1018E800F402002008B50B4C4FF0E0264FF080556D
:1018F800FFF7D2FF2368012BFAD9C6F8045DBFF3BE
:101908004F8FBFF36F8FFFF7C7FF2368012BF4D802
:10191800EEE700BF680300202DE9F04F624B1C681A
:10192800013483B01C60002C00F091805F490B6883
:101938009C4275D3DFF888E1DEF800301B68002B85
:1019480000F0AE804FF0000C59485A4F5A4D0191A3
:10195800664657E0D3E9022AD3F81480C2F808A0F3
:10196800CAF80420D8F804208A42D8F8002008BF12
:10197800C8F804A0013A5E61C8F80020D3F82880AE
:10198800B8F1000F11D0D3E9072AC2F808A0CAF8A5
:101998000420D8F804204A45D8F8002008BFC8F821
:1019A80004A0013A9E62C8F80020DA6AD5F800B0AF
:1019B80002EB82084FF0010900EB880A09FA02F9E4
:1019C80049EA0B09C5F80090DAF80490C3F80890C2
:1019D800D9F808B0C3F80CB0CBF80410C9F808104F
:1019E800C3F814A050F828303968013340F828307B
:1019F800DEF80030C96A1B688A4288BF4FF0010CC4
:101A0800002B42D0DEF80030DB68DB685A6894426D
:101A180003F1040103F118099CD201990A6003E05B
:101A28002348244F4FF0000C3B68244ADB6A1268B5
:101A380003EB830350F82330022B28BF4FF0010C2F
:101A4800002A0CBF6046012003B0BDE8F08F1C4B94
:101A58001A68126842B14FF0500383F31188BFF33C
:101A68006F8FBFF34F8FFEE7164A18681168196029
:101A7800154910600A6801320A601A6812684AB982
:101A88000A494FF0FF330B6051E701994FF0FF33DC
:101A98000B60C9E71B680549DB681B680B6046E7F4
:101AA8000348044F9C46F1E7F0020020D4020020CE
:101AB8006803002008040020EC020020E002002057
:101AC8003C03002038030020DC0200202DE9F04F01
:101AD800DFF87481D8F80030013B83B0C8F80030D3
:101AE800D8F80090B9F1000F40F090804F4B1B6878
:101AF800002B00F08B80DFF854C1DCF80030002B9D
:101B080000F090804A4BDFF848E14A4E0193DCF838
:101B18000C30DB689A6AD3E9070154688160486031
:101B280003F11800844208BF51601168C3F8289077
:101B380001391160D3E902205969906042604A680E
:101B4800DEF800401D1DAA4208BF48600868DA6A2E
:101B58000138086001209040204302EB8201CEF852
:101B68000000354806EB810700687C68D0F82CA097
:101B780056F82100D4F808B09C6001305245C3F8EB
:101B88000CB0CBF80450A5605F6146F8210002D97B
:101B9800019B01221A60DCF80030002BB7D1274BDB
:101BA8001A681268002A38D01A68254BD268126859
:101BB8001A60244D2C689CB1019F012605E0FFF7AF
:101BC800ABFE00B13E60013C09D0D8F80030002BD4
:101BD800F5D02B68013C03F101032B60F5D12C6093
:101BE800019B1B6893B14FF0E02313494FF08052DB
:101BF8000968C3F8042DBFF34F8FBFF36F8F01F04F
:101C08004BFA0124204603B0BDE8F08F01F044FAF6
:101C18000024204603B0BDE8F08F094B4FF0FF3297
:101C28001A60C6E7024B0193C3E700BFF402002025
:101C3800E002002068030020080400203C03002084
:101C4800D4020020E4020020CC020020240300205B
:101C5800EC0200202DE9F0474FEA82090746484682
:101C680016468A46984601F039FB002800F098800D
:101C78000546542001F032FB0446002800F08D8010
:101C88005422002103F0CBF9256328464A46A521B2
:101C980003F0C5F9206BBAF1000F0FD00AF1FF3C31
:101CA8000AF10F0204F133031CF8011F03F8011FA6
:101CB80009B19445F8D1002384F84330089B072BD9
:101CC80008D94FF0500383F31188BFF36F8FBFF328
:101CD8004F8FFEE7A9F10409089BE362484404F129
:101CE8000409636420F0070A484600F02FFF04F156
:101CF800180000F02BFF089B2461C3F1080550462B
:101D0800A56164624246394601F090F9AAEB000ADF
:101D1800B6EBAA0F206047D9099B03B11C6001F0FC
:101D280099F9444A444E1368013313603368002B11
:101D380053D0424FE26A3B6823B93368DB6A934267
:101D480098BF34603E4DDFF818C13E4802EB82036D
:101D580005EB830E9B00DEF80410A160D1F8088023
:101D6800C4F80C80C8F80490C1F80890DCF800109A
:101D7800C4F814E00131CCF80010E958D0F800C0DC
:101D88000131E9500123934043EA0C03036001F059
:101D980083F93B688BB9012004E0284601F07CFBFD
:101DA8004FF0FF30BDE8F0874FF0500383F3118800
:101DB800BFF36F8FBFF34F8FFEE73268E36AD26AD3
:101DC8009A42E8D24FF0E0234FF08052C3F8042D36
:101DD800BFF34F8FBFF36F8FDDE734601368012BBC
:101DE80003D0E26A164D154FADE7154D2F4605F1A4
:101DF800A0083846143700F09DFEB845F9D1DFF841
:101E08006480114F404600F095FE384600F092FE7F
:101E18000E4800F08FFE0E4800F08CFE0D4800F0D2
:101E280089FE0D4BE26AC3F800800C4B1F60034F1C
:101E380089E700BFF402002008040020E80200201F
:101E480068030020EC020020400300202403002047
:101E580010030020F80200203C0300203803002073
:101E6800D80200205403002038B5D8B189B12B4CD2
:101E78002368013323602A4B1A682368012B1AD080
:101E88004FF0500383F31188BFF36F8FBFF34F8F69
:101E9800FEE74FF0500383F31188BFF36F8FBFF352
:101EA8004F8FFEE74FF0500383F31188BFF36F8F16
:101EB800BFF34F8FFEE705686B182CBF0121002187
:101EC800954224D931B39A4224D203600021981A4A
:101ED800FFF77EFC012501F0BDF8236843B94FF0F8
:101EE800500383F31188BFF36F8FBFF34F8FFEE763
:101EF800FFF7ECFD48B94FF0E0234FF08052C3F8EC
:101F0800042DBFF34F8FBFF36F8F284638BD0029CC
:101F1800DBD1D8E703600025DDE700BFCC02002055
:101F2800F002002010B550B94FF0E0234FF0805276
:101F3800C3F8042DBFF34F8FBFF36F8F10BD124C42
:101F48002368013323602368012B08D04FF0500326
:101F580083F31188BFF36F8FBFF34F8FFEE7002124
:101F6800FFF736FC01F076F8236843B94FF05003C9
:101F780083F31188BFF36F8FBFF34F8FFEE7FFF72F
:101F8800A5FD0028D0D010BDCC02002030B51C4BD8
:101F98001C491D4887B00024CDE90043CDE902144F
:101FA8002346802202A9CDE90444FFF753FE012805
:101FB80003D100F095FF01280ED0013003D0134B58
:101FC8001B6807B030BD4FF0500383F31188BFF38F
:101FD8006F8FBFF34F8FFEE74FF0500383F31188E5
:101FE800BFF36F8FBFF34F8F09490A4A0A4B4FF06F
:101FF800FF350D6010601C6001F084F8DFE700BF5A
:10200800D002002049444C45ED180008D053000880
:10201800D4020020E8020020F0020020024A1368DF
:1020280001331360704700BFCC02002008B501F0EF
:1020380011F8084B1B6843B94FF0500383F311881C
:10204800BFF36F8FBFF34F8FFEE7BDE80840FFF780
:102058003DBD00BFCC020020014B1868704700BF8F
:10206800F0020020014B1868704700BFF4020020FE
:10207800054B1B680BB9FFF74FBC044A13680133C3
:1020880000201360704700BFCC020020E40200204B
:10209800264B1B681BB1264B01221A607047244A45
:1020A80010B5244C13602368216822680968126BF4
:1020B8001B6B914203D91A68B2F1A53F29D0216858
:1020C80020683431FEF7B8F81B4B1B68B3FA83F36A
:1020D800DBB2C3F11F0303EB830318499A0001EB3A
:1020E8008303885840B94FF0500383F31188BFF336
:1020F8006F8FBFF34F8FFEE758680832406858600B
:102108000A44904204BFD8685860C36823602368B3
:1021180010BD5A68B2F1A53FD1D19A68B2F1A53F76
:10212800CDD1DB68B3F1A53FC9D1CDE7CC02002002
:10213800E002002008040020EC02002068030020D0
:1021480060B110B50A4B0C461968183100F002FD51
:1021580020460121BDE81040FFF73ABB4FF050037D
:1021680083F31188BFF36F8FBFF34F8FFEE700BF74
:102178000804002030B38C461146174AF0B50346D0
:1021880014684568D2F800E017681668E561002908
:102198001C6808BF6046D2F800C006F11802AE6895
:1021A800CEF8206004F1010407F11807776018BF22
:1021B8004FF0FF30AA60CCF828301C60BDE8F04032
:1021C800FFF706BB4FF0500383F31188BFF36F8FFF
:1021D800BFF34F8FFEE700BF08040020C368DB6829
:1021E800002B55D0D3E907019A6A2DE9F0418160A7
:1021F8004860506803F11804A0422A4808BF51609B
:1022080011680068002501399D621160DA6AA8B179
:1022180025490D684868D86101350D6085681D62DB
:102228006C6084609962214B1B68DB6A93423DBFF6
:102238001F4B012018600020BDE8F081D3E902405F
:102248005969A06044604C681A4EDFF86CE01D1DA7
:10225800AC4208BF48600868DEF8008001380860B2
:1022680002EB820106EB810C01208900DCF8047086
:1022780074589F60904040EA0800CEF80000B868A3
:10228800D86001344560BD60C3F814C07450CAE713
:102298004FF0500383F31188BFF36F8FBFF34F8F55
:1022A800FEE700BFCC020020240300200804002021
:1022B800E002002068030020EC020020034A044BDF
:1022C80012681B68C0E90023704700BFDC020020C9
:1022D800F0020020F8B518B30D46C1B1044600F06D
:1022E800B9FE2B681A4A581C11682ED0DFF864C052
:1022F800D4E90060DCF80070BE421AD0884218D8D1
:1023080000232B60012400F0C7FE2046F8BD4FF0E3
:10231800500383F31188BFF36F8FBFF34F8FFEE72E
:102328004FF0500383F31188BFF36F8FBFF34F8FC4
:10233800FEE7A1EB000E7345E2D95B1ADCF800104A
:10234800126803442B60C4E900120024DBE700BFD5
:10235800F0020020DC020020014B01221A607047C5
:10236800E0020020054B1B6833B1054B1868B0FA32
:1023780080F040094000704701207047E8020020C3
:10238800CC02002020B32DE9F8432C4B1B68834274
:10239800044608D04FF0500383F31188BFF36F8FC2
:1023A800BFF34F8FFEE79B6C4BB1C16A426C013B98
:1023B8009142836400D06BB10020BDE8F8834FF0F0
:1023C800500383F31188BFF36F8FBFF34F8FFEE77E
:1023D80000207047051D284600F0D4FB184A30B984
:1023E800E06A13680121814023EA01031360636CEA
:1023F8001448E362C3F10801A16103EB830100EB18
:1024080081068900D6F804E04758DEF80880C4F849
:1024180008E007F1010CC4F80C80D2F80090C8F865
:102428000450CEF80850666140F801C0012000FA57
:1024380003F343EA09031360BFE700BF0804002061
:10244800EC0200206803002040B14FF0500383F3F2
:102458001188BFF36F8FBFF34F8FFEE72DE9F0416F
:102468002B4C2368DB6C0D4693B100F0F3FD236819
:10247800DE6C26B12368002D34D00022DA6423688C
:10248800002283F8502000F007FE3046BDE8F081B6
:102498001746002AE9D01F4E33680133336000F035
:1024A800D9FD2368DB6C03BB23684FF0010883F870
:1024B800508000F0F1FD41463846FFF789F900F0F9
:1024C800C9FD3368D3B1FFF701FB0028CDD14FF028
:1024D800E0234FF08052C3F8042DBFF34F8FBFF3B2
:1024E8006F8FC2E7721EDA64C9E700F0D5FD00F00D
:1024F800B1FD336813B1FFF7E9FAB6E74FF05003BF
:1025080083F31188BFF36F8FBFF34F8FFEE700BFD0
:1025180008040020CC02002040B341B14FF0500322
:1025280083F31188BFF36F8FBFF34F8FFEE72DE959
:10253800F0471546044600F0A3FEEFF311814FF073
:10254800500383F31188BFF36F8FBFF34F8F0223BC
:1025580094F8502084F85030E36C012A03F1010309
:10256800E3640CD081F31188BDE8F0874FF0500385
:1025780083F31188BFF36F8FBFF34F8FFEE7A36A12
:1025880043B14FF0500383F31188BFF36F8FBFF34C
:102598004F8FFEE7264BE06A1B68002B3AD1D4E93F
:1025A80002626369B2605F685660261DB74208BF61
:1025B8005A601A68DFF888C0DFF88880013A1A6024
:1025C80000EB80030CEB83079B00D8F800A05CF8B5
:1025D8000320D7F804E0C4F808E002F10109012259
:1025E800824042EA0A02C8F80020DEF80820E260C9
:1025F8005660CEF8086067614CF803900D4B1B6875
:10260800DB6A8342AED20DB101232B600A4B012253
:102618001A60A7E7094B1E685A68E26101361E6016
:102628009668266204F1180777609760A362E5E769
:10263800CC02002008040020E0020020240300202F
:1026480068030020EC020020036C70B5856B04461B
:102658002BB90668013546B31846A56370BD164602
:1026680082B91A46406802F007FD6368216CA268C7
:102678000B449342636024BF2368636001350020E4
:10268800A56370BD1A46C06802F0F6FC226CE368C8
:1026980051429B1A2268E360934202D2A3680B441A
:1026A800E360022E06D00135E9E78068FFF76AFE8D
:1026B800A660D2E7012D38BF01250020CDE700BF75
:1026C80070B5054600F0C6FC95F845305CB2002CA4
:1026D80014DD05F1240603E0631EDAB25CB26AB1C8
:1026E8006B6A304653B1FFF779FD0028F4D0FFF745
:1026F80033FE631EDAB25CB2002AF1D1FF2385F8FB
:10270800453000F0C9FC00F0A5FC95F844305CB2F7
:10271800002C14DD05F1100603E0631EDAB25CB28A
:102728006AB12B69304653B1FFF758FD0028F4D041
:10273800FFF712FE631EDAB25CB2002AF1D1FF2362
:1027480085F84430BDE8704000F0A6BC58B370B5B9
:10275800C56B0446F5B1026CA2FB0525D5B90E463A
:1027680000F078FCD4E90F232168A56303FB02F28B
:10277800D31A0A44A2600B44FF2284F84420616003
:10278800E36084F8452046BB2369ABB900F084FCBC
:10279800012070BD4FF0500383F31188BFF36F8F92
:1027A800BFF34F8FFEE74FF0500383F31188BFF359
:1027B8006F8FBFF34F8FFEE704F11000FFF70EFD98
:1027C8000028E3D04FF0E0234FF08052C3F8042DE7
:1027D800BFF34F8FBFF36F8FD8E704F1100000F0FD
:1027E800A9F904F1240000F0A5F9CFE730B583B0CA
:1027F80040B1A1FB0023044623B901FB00F010F10E
:10280800490F08D94FF0500383F31188BFF36F8F36
:10281800BFF34F8FFEE74830019100F05FFD05469A
:1028280050B1019959B100F14803C5E90F412B6036
:1028380001212846FFF78AFF284603B030BD03462A
:10284800F3E700BF2DE9F04160B30E4617461D4679
:10285800044621B3022D0BD1E36B012B08D04FF0B6
:10286800500383F31188BFF36F8FBFF34F8FFEE7D9
:1028780000F006FDEFF311884FF0500383F3118841
:10288800BFF36F8FBFF34F8FA26BE36B9A4212D3E4
:10289800022D10D0002088F31188BDE8F081036C68
:1028A800002BD7D04FF0500383F31188BFF36F8FFD
:1028B800BFF34F8FFEE72A4694F84550A36B314685
:1028C8006DB22046FFF7C0FE6B1C03D1636AABB93B
:1028D8000120E0E7FFF7C6FB8542F9D27F2D04D03F
:1028E8006B1C5BB284F84530F2E74FF0500383F37A
:1028F8001188BFF36F8FBFF34F8FFEE704F12400F9
:10290800FFF76CFC0028E3D0002FE1D001233B60E7
:10291800DEE700BFF0B585B00192002800F08480A2
:102928000E460446002941D0FFF71CFD002849D077
:1029380000F090FBA56B002D7FD1019B8BB302A803
:10294800FFF7BCFC2F4600F0A7FBFFF767FB00F082
:1029580081FB94F84430FF2B08BF84F8447094F846
:102968004530FF2B08BF84F8457000F095FB01A99E
:1029780002A8FFF7AFFC002830D100F06BFBA36B77
:10298800002B38D000F088FB2046FFF799FEFFF7B0
:102998004DFB00F05FFBA56B002D4ED1019B002B7A
:1029A800D1D100F079FB002005B0F0BD036C002BFD
:1029B800BAD04FF0500383F31188BFF36F8FBFF382
:1029C8004F8FFEE7019B002BB2D04FF0500383F3EB
:1029D8001188BFF36F8FBFF34F8FFEE72046FFF7D5
:1029E8006FFEFFF723FB00F035FBA36B002BD8D05D
:1029F80000F052FBCDE700F04FFB019904F12400F1
:102A0800FFF79EFB2046FFF75BFEFFF70FFB002852
:102A1800BFD14FF0E0234FF08052C3F8042DBFF32D
:102A28004F8FBFF36F8FB4E74FF0500383F31188D4
:102A3800BFF36F8FBFF34F8FFEE7226C52B1E1688F
:102A4800A36811449942E16024BF2168E1603046DF
:102A580002F012FB2369013DA5631BB900F01CFBC2
:102A68000120A1E704F11000FFF7B8FB0028F5D01A
:102A78004FF0E0234FF08052C3F8042DBFF34F8F7F
:102A8800BFF36F8FEAE700BFF0B1E1B170B4144D46
:102A980000242B46224603E0082A03F108030DD040
:102AA8005E68864219D00132002CF5D11E68002ECE
:102AB80008BF1C46082A03F10803F1D10CB1C4E988
:102AC800001070BC704770474FF0500383F31188B3
:102AD800BFF36F8FBFF34F8FFEE705EBC204EEE73E
:102AE8001004002070B504460E46154600F0B2FAF0
:102AF80094F84430FF2B04BF002384F8443094F842
:102B08004530FF2B04BF002384F8453000F0C4FA99
:102B1800A36B23B12046BDE87040FFF7D1BD04F197
:102B280024002A463146FFF725FB2046BDE87040C1
:102B3800FFF7C6BD00F108034FF0FF310022C0E9DE
:102B48000131C0E903330260704700BF002303610D
:102B5800704700BF30B40D686B1C10D000F108033B
:102B68001C465B681A68AA42FAD902684B600132AF
:102B780099608C606160086130BC026070470469CC
:102B88006368F2E7034602699968406810B45468BC
:102B98008160486010689C4208BF5160013800217C
:102BA80019615DF8044B1060704700BFF8B5104C10
:102BB80000F050FA25681DB1BDE8F84000F06CBA85
:102BC8000C4F0D4E3846FFF7B5FF3046FFF7B2FF02
:102BD8000A4B1F600A4B2A460C210A201E60FFF789
:102BE80005FE20600028E7D00649FFF74DFFE3E720
:102BF80058040020780400206404002060040020A9
:102C08005C040020A85300082DE9F047DFF888800D
:102C1800D8F80030DB68DC6804F10409054648464A
:102C28000F46FFF7AFFF94F824305A070DD423F06E
:102C3800010384F824302046236ABDE8F04718478A
:102C480093421CD8236A98473546A3692461EE1835
:102C58002CBF01210021B7422046A7EB0502666080
:102C6800EED2AF4201D20029ECD0D8F80000494694
:102C7800FFF770FF236A2046BDE8F0471847054B69
:102C880049461868FFF766FF236A2046BDE8F04703
:102C9800184700BF5C040020600400202DE9F04FB5
:102CA8008B4EDFF83482DFF834928A4F85B04FF0CC
:102CB800000A33681D68002D00F0DD80DB681D68A0
:102CC800FFF7ACF9FFF7C8F9D8F800309842044686
:102CD80075D38542C8F8000040F2E98000223868C0
:102CE800291BFFF7FFFEFFF7A1F948B94FF0E022D3
:102CF8004FF08053C2F8043DBFF34F8FBFF36F8F7F
:102D0800CDE901AACDF80CA03868002201A9FFF787
:102D180001FE0028CDD0019B002BF5DB039C002C85
:102D2800F2D0636913B1201DFFF72CFFFFF794F968
:102D3800D8F800309842054612D3019BC8F80050D5
:102D4800013B082BE0D8DFE803F015157D688415F2
:102D5800157D6800DB684FF0FF311868FFF754FFF6
:102D680033681A68002AF5D1D9F800203260C9F80A
:102D78000030E2E794F82410029AD4F818C02461CD
:102D880041F0010384F8243012EB0C032CBF01201E
:102D98000020AB42636065D8AA1A94454CD848070E
:102DA80022D421F0010184F82410236A2046984790
:102DB800AAE7DB684FF0FF311868FFF725FF336893
:102DC8001A68002AF5D1D9F800203260C9F8003015
:102DD800C8F80040FFF72AF992E78C4561D8236AC2
:102DE8009847D4F818C05B461CEB030B2CBF4FF078
:102DF800010E4FF0000E5D452046A5EB0301C4F817
:102E080004B02461E9D29D4202D2BEF1000FE6D09F
:102E18003068211DFFF79EFEC7E794F82420029B27
:102E2800A36142F0010284F82420002B46D02B44F1
:102E3800AB426360246119D8D9F80000211DFFF75F
:102E480089FE61E794F8243023F0010384F82430E4
:102E58005AE794F824309A071FD523F0010384F821
:102E6800243051E7AA4201D9002898D03068211DA2
:102E7800FFF770FE48E7FFF7D1F8FFF7EDF8D8F84D
:102E88000030834204469AD8D9F80030C8F8004088
:102E98001A68B2FA82F2520921E7204600F0FCFAD9
:102EA80032E7D9F80000211DFFF754FE7DE7FFF750
:102EB800BDF821462846FFF7A7FE21E74FF050034B
:102EC80083F31188BFF36F8FBFF34F8FFEE700BF07
:102ED8006004002058040020500400205C040020F6
:102EE80000B583B0FFF762FE0D4B1B685BB10D4A5E
:102EF8000D490E480223CDE9003200234FF48072B9
:102F0800FEF7A8FE40B94FF0500383F31188BFF3D2
:102F18006F8FBFF34F8FFEE703B05DF804FB00BF70
:102F28005804002054040020B0530008A52C0008C1
:102F3800064B19680868B0E8F04F80F30988BFF3BA
:102F48006F8F4FF0000080F311887047080400204D
:102F580008480068006880F308884FF0000080F394
:102F6800148862B661B6BFF34F8FBFF36F8F00DF6F
:102F780000BF000008ED00E0EFF30980BFF36F8F9A
:102F8800144B1A681EF0100F08BF20ED108A20E9B4
:102F9800F04F10602DE909004FF0500080F31188C0
:102FA800BFF34F8FBFF36F8FFFF772F84FF000003A
:102FB80080F3118809BC19680868B0E8F04F1EF062
:102FC800100F08BFB0EC108A80F30988BFF36F8F29
:102FD8007047000008040020DFF80C00016841F485
:102FE800700101607047000088ED00E00E4B1B681F
:102FF80082B000220133019208D04FF0500383F3CE
:103008001188BFF36F8FBFF34F8FFEE74FF0500368
:1030180083F31188BFF36F8FBFF34F8F019B002B92
:10302800FCD002B0704700BF0400002010B44FF07D
:103038008073074C40F8043C21F001016FF0020353
:1030480040E9034140E909325DF8044B44387047D0
:10305800F52F00084FF0500383F31188BFF36F8FEB
:10306800BFF34F8F0B4A13680133012B136000D055
:1030780070474FF0E023D3F8043DDBB2002BF7D0C4
:103088004FF0500383F31188BFF36F8FBFF34F8F57
:10309800FEE700BF04000020084A136843B94FF058
:1030A800500383F31188BFF36F8FBFF34F8FFEE791
:1030B800013B13600BB983F31188704704000020AB
:1030C80008B54FF0500383F31188BFF36F8FBFF338
:1030D8004F8FFEF7CDFF28B14FF0E0234FF080521D
:1030E800C3F8042D002383F3118808BD4FF0E023B3
:1030F800002203481A6107219A61586119617047D3
:103108003F9002004FF0E023554AD3F8001D91424A
:103118001CD0D3F8001D534A91420ED0D3F8083D75
:10312800514AD96A91421AD04FF0500383F311885B
:10313800BFF36F8FBFF34F8FFEE74FF0500383F35A
:103148001188BFF36F8FBFF34F8FFEE74FF0500327
:1031580083F31188BFF36F8FBFF34F8FFEE7434AA6
:103168009B6B934208D04FF0500383F31188BFF351
:103178006F8FBFF34F8FFEE730B583B03C4B002213
:1031880001921A78FF21D2B28DF8022019701B78AB
:10319800384ADBB28DF803309DF8033003F0500352
:1031A800137043B94FF0500383F31188BFF36F8F47
:1031B800BFF34F8FFEE79DF80330DB4313F0500F4A
:1031C80011D04FF0500383F31188BFF36F8FBFF313
:1031D8004F8FFEE7019B013301939DF803305B009D
:1031E800DBB28DF803309DF803301B06F2D4019B47
:1031F800082B32D0019BC3F107031B0203F4E063E1
:103208009DF802201C481A4903604FF0E024D2B20E
:103218000A70D4F8203D43F47F03C4F8203DD4F865
:10322800203D002543F07F43C4F8203DC4F81C5DD1
:10323800FFF75CFF114B1D60FFF7CEFED4F8343F5B
:1032480043F04043C4F8343FFFF782FEFEF720FF07
:10325800FFF7CCFE284603B030BD0023D0E700BFFF
:1032680071C20F4170C20F41392F0008812F000829
:1032780000E400E0900400208C04002004000020FA
:10328800EFF305830F2B0ED91149124A5B5C1278B4
:103298009A4208D94FF0500383F31188BFF36F8F18
:1032A800BFF34F8FFEE74FF0E0230B4AD3F80C3DF6
:1032B800126803F4E063934208D94FF0500383F394
:1032C8001188BFF36F8FBFF34F8FFEE7704700BFC2
:1032D800F0E300E0900400208C040020F8B5431EC1
:1032E8000A332CD810F0070300F1080433D1624DDB
:1032F800FEF794FE2A682346002A4CD0002C23DBD4
:103308005E4F3E68A6421FD35D485E4903688B4204
:1033180037D3DFF880E1734533D884465868A04234
:1033280053D21A68002A50D08A4225D24FF050034F
:1033380083F31188BFF36F8FBFF34F8FFEE74E4DB6
:10334800FEF76CFE2B682BB3FEF770FEFCF77EFFD2
:1033580000252846F8BDA3F10902A242EFD3464D45
:103368001030C41AFEF75AFE2A6823469AB1002B79
:10337800EADB002CC4D1E7E77245D7D89C46134650
:10338800CCE74FF0500383F31188BFF36F8FBFF37F
:103398004F8FFEE71C463B493B4A3C48384F4E0797
:1033A80018BF073122F0070218BF21F007010E46A7
:1033B800511A016031483E600160002078602A603F
:1033C800C2E90000C6E90021D1E72A689A42BBD0C9
:1033D800DCF8002002F108058D420FD375450DD8A1
:1033E8001968CCF80010A04211D24FF0500383F3B3
:1033F8001188BFF36F8FBFF34F8FFEE74FF0500375
:1034080083F31188BFF36F8FBFF34F8FFEE7A0EBF5
:10341800040EBEF1100F11D91A19500708D04FF039
:10342800500383F31188BFF36F8FBFF34F8FFEE70D
:10343800C2F804E020461951CCF8002013490C6862
:10344800361AA64238BF0E6011493E600A6840F03D
:10345800004000241C60013258600A60FEF7E6FD57
:103468006B073FF476AF4FF0500383F31188BFF337
:103478006F8FBFF34F8FFEE7A4040020A004002045
:10348800A8040020B0040020A86400209C040020A8
:1034980098040020AF640020F8B1F0B53D4DA0F1CC
:1034A8000804AC4283B00FD33B4EB4420CD850F85A
:1034B800043C002B12DB4FF0500383F31188BFF359
:1034C8006F8FBFF34F8FFEE74FF0500383F31188E0
:1034D800BFF36F8FBFF34F8FFEE7704750F8082C8C
:1034E80042B14FF0500383F31188BFF36F8FBFF3DE
:1034F8004F8FFEE723F0004340F8043C0190FEF7AD
:103508008DFD264A0198136850F8041C244F0B447B
:1035180013603B461A461B689C42FBD8BA4203D04C
:10352800AA4216D3B24214D855685619B44223D0C9
:103538006518AB4216D040F8083CA24218BF146088
:10354800184A13680133136003B0BDE8F040FEF772
:103558006DBD4FF0500383F31188BFF36F8FBFF336
:103568004F8FFEE7104D2D68AB42E4D0D3E90050F1
:103578000144C4E90051E0E72944501883425160EE
:10358800DED109480068834201D01446EEE7136093
:10359800D6E700BFB0040020AF640020A0040020DC
:1035A800A804002094040020A404002038B50E4A82
:1035B8000E4B1278054618684FF47A73B3FBF2F392
:1035C800B0FBF3F000F09AF808B90F2D01D90120EB
:1035D80038BD0446024629464FF0FF3000F044F853
:1035E800034B20461D6038BD080000200000002065
:1035F8000C00002008B5094B1A6842F400721A60E2
:103608001A6842F480621A60052000F01BF80F2047
:10361800FFF7CCFFFCF7E6FF002008BD003C0240A6
:10362800034A044B11681B780B441360704700BFB2
:10363800B064002008000020014B1868704700BFE4
:10364800B06400200749CA6803024FF6FF0003F47C
:10365800E0630240134343F0BF6343F40033CB609D
:10366800704700BF00ED00E01B4BDB68C3F302238B
:1036780000B5C3F1070EBEF1040F03F1040C28BF17
:103688004FF0040EBCF1060F1CD9A3F1030C4FF048
:10369800FF3303FA0CF322EA03024FF0FF3303FA75
:1036A8000EF321EA030303FA0CF313431B0100286A
:1036B800DBB20ADB00F1604000F5614080F80033BE
:1036C8005DF804FB00229446E7E7044A00F00F0087
:1036D800024413765DF804FB00ED00E0FCEC00E02A
:1036E800002807DB4109044A00F01F00012383403A
:1036F80042F82130704700BF00E100E00138B0F126
:10370800807F01D30120704710B44FF0E023074CAD
:1037180058614FF0F00C84F823C0002207211046AE
:103728009A615DF8044B1961704700BF00ED00E035
:10373800002800F068812DE9F0410368DD0782B0B8
:1037480004462FD59E498A6802F00C02042A00F02C
:10375800ED808A6802F00C02082A00F0E3806368B2
:10376800B3F5803F00F0EC80B3F5A02F00F04D8159
:10377800934D2A6822F480322A602A6822F4802233
:103788002A60002B40F0E180FFF756FF064605E06F
:10379800FFF752FF801B642800F201812B689B030E
:1037A800F6D423689F0728D5854A916811F00C0F35
:1037B80000F09A80916801F00C01082900F09080CF
:1037C800E368002B00F00E817E4B7D4E01221A60CB
:1037D800FFF732FF054605E0FFF72EFF401B0228E2
:1037E80000F2DD8033689807F6D53368226923F044
:1037F800F80343EAC203336023681A075BD4580707
:103808003AD56F4A136C13F0805340F089800193C6
:10381800136C43F080531364136C03F080530193CB
:10382800019B0125684E3368D90540F1A880A3683B
:10383800012B00F0B880052B00F02381604E326F19
:1038480022F001023267326F22F004023267002B45
:1038580040F0AE80FFF7F0FE41F28838074605E0F9
:10386800FFF7EAFEC01B404500F29980336F9807C6
:10387800F6D4002D40F0D380A369C3B1504DAA6897
:1038880002F00C02082A36D0022B4E4B4FF00002F1
:103898001A6600F0CA80FFF7CFFE044604E0FFF77F
:1038A800CBFE001B02287AD82B689B01F7D4002096
:1038B80002B0BDE8F08163690BB3424B404E012270
:1038C800C3F8802EFFF7B8FE054604E0FFF7B4FE04
:1038D800401B022863D8736F9B07F7D523688EE7D0
:1038E800526856023FF56CAF354A126895073AD5CB
:1038F800E268012A37D0012002B0BDE8F081314AE0
:103908002F4EC2F8803EFFF797FE054604E0FFF70A
:1039180093FE401B022842D8736F9F07F7D4DDE758
:1039280000257FE74A6850027FF519AF244A1268DC
:1039380091037FF537AF6268002A7FF433AFDAE787
:103948001F4A136843F480331360FFF775FE1C4E5B
:10395800054604E0FFF770FE401B64281FD8336853
:103968009A03F7D51DE7164920690A6822F0F8027C
:1039780042EAC0020A601A077FF541AF9BE7336845
:1039880043F480733360FFF757FE07463368DA0560
:103998003FF54DAFFFF750FEC01B0228F6D90320B4
:1039A80002B0BDE8F081064A136F43F001031367C4
:1039B800FFF742FE024F064641F288380BE000BF8F
:1039C800003802400000474200700040FFF734FE14
:1039D800801B4045E3D83B6F9B07F7D5002D3FF48C
:1039E8004BAF1CE02C4A2D4E1360FFF725FE054611
:1039F80004E0FFF721FE401B0228D0D8336899075E
:103A0800F7D42368F9E601207047244B1A6842F47A
:103A180080221A601A6842F480321A6095E71F4AB9
:103A2800136C23F08053136426E7FFF705FE064660
:103A380004E0FFF701FE801B0228B0D82B6899012B
:103A4800F7D4D4E90731626A0B4343EA8213D4E915
:103A58000A205208104943EA0063013A43EA024344
:103A680001226B600A66FFF7E7FD0C4D044604E08F
:103A7800FFF7E2FD001B022891D82B689A01F7D5C1
:103A880015E7064B1A6F42F004021A671A6F42F0E4
:103A980001021A678CE700BF000047420038024065
:103AA800164908B58B6803F00C03042B1BD0082BB0
:103AB80001D0134808BD4A684B68496813F480036D
:103AC80002F03F0211D10E48C1F38811A1FB000199
:103AD800FCF756FB094B5B68C3F3014301335B00FA
:103AE800B0FBF3F008BD074808BD0648C1F38811CC
:103AF8000023A1FB0001FCF743FBEBE70038024081
:103B08000024F40000127A00002800F08680474A5A
:103B1800136803F00F038B422DE9F0410D4604466C
:103B280009D2CBB21370136803F00F038B4202D093
:103B38000120BDE8F0812368980714D5590704D5FA
:103B48003B498A6842F4E0528A601A0704D538492A
:103B58008A6842F460428A603549A0688A6822F01F
:103B6800F00202438A60DF0721D56268012A56D035
:103B7800931E012B2E4B1B684CD99907D8D52C4E78
:103B8800B36823F003031343B360FFF755FD41F215
:103B98008838074604E0FFF74FFDC01B404543D86F
:103BA800B368626803F00C03B3EB820FF3D11F4ACA
:103BB800136803F00F03AB4206D9EBB21370136816
:103BC80003F00F03AB42B3D123685A0706D518494F
:103BD800E0688A6822F4E05202438A601B0707D52E
:103BE800134A2169936823F4604343EAC10393604D
:103BF800FFF756FF0E4A0F4C92680F49C2F30312A3
:103C08000346A25C0F20D3400B60FFF7CFFC0020D7
:103C1800BDE8F0819801B2D48AE701207047044BCF
:103C28001B689E03ABD483E7032082E7003C024075
:103C380000380240C053000800000020044B05492A
:103C48009B68054A0868C3F38223D35CD840704751
:103C58000038024000000020B8530008044B054912
:103C68009B68054A0868C3F34233D35CD840704761
:103C78000038024000000020B85300082DE9F04F3A
:103C880000230C68DFF820B285B08A4603E00133D0
:103C9800102B00F0A280012202FA03F131EA04029B
:103CA80001EA0407F3D1DAF80420DAF808505E00D4
:103CB80005FA06FC22F010080325B54002F0030EB1
:103CC800B8F1020F6FEA05050EFA06FE00F08880CB
:103CD800D0F8009008F1FF3809EA050949EA0E0E04
:103CE800B8F1010FC0F800E040F29A80C16829409D
:103CF80041EA0C01C160D100C9D5684D002103918A
:103D0800696C41F480416964696C01F480410391F4
:103D1800039923F0030101F1804101F59C3103F07F
:103D280003068D68B6004FF00F0C0CFA06FC25EA66
:103D38000C0E5B4DA84228D005F58065A84200F01E
:103D48008580584DA84200F08780DFF860C1604543
:103D580000F08980DFF858C1604500F08A80DFF8FC
:103D680054C1604500F08C80DFF84CC1604500F01C
:103D78008E80DFF848C160450CBF4FF0070C4FF04C
:103D8800080C0CFA06F64EEA060EC1F808E0DBF855
:103D98000010FD43D60354BF29403943CBF8001027
:103DA800DBF80410960354BF29403943CBF80410BC
:103DB800DBF80810D60254BF29403943CBF8081065
:103DC800DBF80C10920203F1010354BF2940394378
:103DD800102BCBF80C107FF45EAF05B0BDE8F08F68
:103DE8004FEAD30900EB890903F00708D9F82070D6
:103DF8000097DAF810704FEA880807FA08F7019771
:103E08000F2707FA08F8009F27EA0808019F47EAE2
:103E18000807C9F8207007682F4047EA0E070760AF
:103E2800876807EA050EDAF80C70B74047EA0E070C
:103E38008760466812099A4026EA01010A434260EF
:103E4800C2682A4042EA0C02C26020E7012505FA4E
:103E580006F64EEA060E98E74FF0020C0CFA06F644
:103E68004EEA060E91E7032505FA06F64EEA060E17
:103E78008BE74FF0040C0CFA06F64EEA060E84E7C0
:103E88004FF0050C0CFA06F64EEA060E7DE74FF0E9
:103E9800060C0CFA06F64EEA060E76E700380240E3
:103EA8000000024000080240003C0140000C0240B3
:103EB800001002400014024000180240001C02409A
:103EC80002B909048161704738B50446FFF7B4FBAD
:103ED800002C6BD023680222002184F8341084F867
:103EE80035201A6822F0010205461A6005E0FFF73E
:103EF800A3FB431B052B37D823681A68D107F6D4D0
:103F0800D4E90120E16802430A43D4E90451A069D5
:103F18002A430A43E1691D6802430A43314929409B
:103F2800256A2A430A43616A042924D01A605A6917
:103F380022F007021143D8B22B4A59611038A2FB6C
:103F48000052120929496FF30903895CE1655F286A
:103F580088BF04333F228A40A36500209A6001236A
:103F6800606584F8353038BD03232022626584F803
:103F78003530184638BDD4E90B512943114319602F
:103F88005969A26A21F00701114341F00401002D8B
:103F9800D1D068B9012A21D032F00202CBD1EA018E
:103FA800C9D540220123626584F83530012038BD27
:103FB800B0F5005F04D0022AF3D9032AEFD0BAE79C
:103FC800032AB8D801A050F822F000BFAB3F000880
:103FD800A73F0008AB3F0008E53F0008B5F1C07FE8
:103FE800A9D1DEE73F8010F0ABAAAAAAD4530008F3
:103FF80070B490F83440856D012C0AD090F83540A3
:104008004FF0010C644580F834C005D0002380F8D7
:104018003430022070BC7047022680F8356004688E
:1040280000264665266826F4802626606360836835
:10403800402B0EBFA260A160E260C26D08BFE160C4
:104048003F239340AB602368026C43F01603236060
:10405800636943F0800363611AB1236843F008037E
:104068002360236843F001030020236070BC70477D
:1040780090F83530022B03D0802343650120704728
:104088000268052380F83530136823F00103002007
:1040980013607047F0B583B0674A876D16680023D0
:1040A8000193C36D3D6808229A402A42044603D012
:1040B80001680868400778D401229A402A4203D050
:1040C8002168496908066AD404229A402A4203D022
:1040D8002168096889075CD410229A402A4203D0D3
:1040E80021680868000741D420229A402A4214D047
:1040F80021680868C00610D5BA6094F83520052AEA
:1041080063D00B6813F4802F0B687ED0190340F13D
:104118008980E36B0BB120469847636D23B3636DC9
:10412800DA071AD522684549052384F8353013681B
:10413800A1FB061623F00103B60A136002E0136818
:10414800DB0704D5019B0133B3420193F7D9002261
:10415800012384F8342084F83530E36C23B12046F9
:1041680003B0BDE8F040184703B0F0BDBA600A6874
:1041780012F4802F0A6822D1D20503D40A6822F0EB
:1041880008020A60226C002AAED020469047E36DF0
:10419800AAE7BA60626D42F0040262659CE7BA6001
:1041A800626D42F0020262658EE7086820F0040042
:1041B8000860BA60626D42F0010262657CE7110333
:1041C800E0D5A26C002AE0D18EE70A6822F0160238
:1041D8000A604A6922F080024A61226C3AB30A688E
:1041E80022F008020A603F2202FA03F3216DBB6045
:1041F8000022012384F8342084F835300029B3D014
:10420800204603B0BDE8F040084713F4807380D11E
:104218000A6822F010020A60012284F8343084F817
:10422800352076E7636C002B7FF475AF75E7A26CD9
:10423800002AD4D1D7E700BF00000020B5814E1B6B
:10424800036A23F0010370B40362036A4468826955
:104258000D6822F073022A438D6823F002032B4372
:104268000E4DA8420AD005F58065A84206D04968D7
:104278004460826170BC416303627047CD6823F07B
:1042880008032B43D1E9056524F4407446EA050C7C
:1042980023F004034CEA0404E9E700BF00000140EE
:1042A800036A23F4807370B40362036A4468C269C2
:1042B8000D6822F073022A438D6823F4007343EAE1
:1042C80005230F4DA8420AD005F58065A84206D0FF
:1042D80049684460C26170BCC16303627047CD68BD
:1042E80023F4006343EA0523D1E9056524F4405427
:1042F80046EA050C23F4806344EA0C14E8E700BF9F
:1043080000000140036A23F4805330B40362036A57
:104318004468C2690D6822F4E64242EA05228D68C3
:1043280023F4005343EA0533094DA8420AD005F5A2
:104338008065A84206D049684460C26130BC016407
:10434800036270474D6924F4804444EA8514F2E717
:10435800000001400368DA6842F00102DA609A68F6
:1043680002F00702062A03D01A6842F001021A6016
:10437800002070470368012201F01F00196A82407B
:1043880021EA02011962186A0B4902438B421A6238
:104398000DD00A4A93420AD09A6802F00702062A08
:1043A80003D01A6842F001021A60002070475A6C64
:1043B80042F400425A64EFE7000001400004014063
:1043C8000368C1B104290DD11A6A22F010021A62D9
:1043D8001A6A42F010021A621A6842F001020020BA
:1043E8001A6070471A6A22F001021A621A6A42F0C9
:1043F80001021A62E8E71A6A22F001021A621A6ACE
:1044080042F001021A62E7E7704700BF704700BF39
:10441800704700BF704700BF03681A69910710B55D
:10442800044602D5DA6892075FD41A69500702D5A4
:10443800DA68510746D41A69120702D5DA681007F4
:104448002ED41A69D20602D5DA68D00618D41A69A9
:10445800D10702D5DA68D2075DD41A69100602D5E9
:10446800DA6811065FD41A69520602D5DA6850066E
:1044780061D41A69910602D5DA68920643D410BD50
:104488006FF01001082219612277DB6913F4407F6D
:10449800204664D0FFF7BAFF002223682277D6E7C8
:1044A8006FF00801042219612277DB699907204619
:1044B80052D1FFF7A9FF2046FFF7AAFF0022236881
:1044C8002277BEE76FF004010222196122779B6907
:1044D80013F4407F20463CD1FFF796FF2046FFF7B4
:1044E80097FF002223682277A5E76FF002010122D7
:1044F800196102779B699B0725D0FFF787FF002288
:104508002368227791E76FF0200220461A61BDE800
:10451800104000F0CBB96FF001021A612046FBF79A
:1045280081FE236899E76FF080021A61204600F047
:10453800BFF9236897E76FF040021A612046FFF73A
:1045480069FF236895E7FFF75FFF2046FFF760FFE5
:10455800D5E7FFF75BFFC4E7FFF758FFAEE7FFF7C4
:1045680053FF2046FFF754FF96E700BF354A03681C
:10457800904210B44DD0B0F1804F34D0A2F57C42B7
:10458800904230D002F5806290422CD002F58062D1
:10459800904228D002F5784290423AD02A4A904276
:1045A80025D002F58062904221D002F580629042C7
:1045B8001DD0A2F59832904219D002F5806290423F
:1045C80015D002F58062904211D08C680A6849695A
:1045D80023F080030B4303600123C46282625DF809
:1045E800044B436170474A6823F070031343CC6857
:1045F8004A6923F44073234323F0800313438C68F0
:104608000A6803600123C46282625DF8044B436157
:1046180070474C68CA6823F07003234323F440733F
:1046280013434A695DF8044B23F080031343036086
:104638008B68C3620B6883620B6903630123436160
:10464800704700BF0000014000400140C0B110B5F4
:1046580090F83D30044603F0FF0263B1214602237F
:1046680084F83D3051F8040BFFF780FF012384F8EC
:104678003D30002010BD80F83C20FCF7DBF8EDE76A
:1046880001207047C0B110B590F83D30044603F0E2
:10469800FF0263B12146022384F83D3051F8040B30
:1046A800FFF764FF012384F83D30002010BD80F837
:1046B8003C20FCF70DF8EDE701207047002848D0B2
:1046C80070B590F83D300C46054603F0FF02002B0C
:1046D8003AD02946022385F83D3051F8040B836807
:1046E80023F4804323F007038360FFF73FFF8168CB
:1046F8008369A669A26823F4407323F0030342EA9E
:1047080006221A432369E6691B0143EA0623E66881
:104718003343066A26F0AA0C266A22F47C4222F069
:10472800FC0243EA0633134366696268246842EA76
:1047380006122143816042EA0C0201218361026270
:1047480085F83D10002070BD80F83C20FBF7F0FF95
:10475800BFE70120704700BF036A23F0100370B45D
:104768000362036A446882690D6822F4E64242EAF9
:1047780005228D6823F0200343EA05130E4DA84255
:104788000AD005F58065A84206D049684460826170
:1047980070BC816303627047CD6823F0800343EAED
:1047A8000513D1E9056524F4406446EA050C23F0B5
:1047B800400344EA8C04E8E70000014038B590F86B
:1047C8003C30012B70D00D4602230121044680F8AD
:1047D8003C1080F83D300C2A18D8DFE802F00717A3
:1047E8001717361717174E1717171E000068294690
:1047F800FFF726FD83692A6943F00803836183690B
:1048080023F0040383618369134383610020012338
:1048180084F83D3084F83C0038BD00682946FFF72D
:1048280071FDC3692A6943F40063C361C36923F452
:104838008063C361C36943EA0223C3610020012383
:1048480084F83D3084F83C00E6E700682946FFF725
:1048580083FF83692A6943F400638361836923F4CE
:1048680080638361836943EA022383610020012313
:1048780084F83D3084F83C00CEE700682946FFF70D
:104888000FFDC3692A6943F00803C361C36923F0B4
:104898000403C361C3691343C3610020012384F87F
:1048A8003D3084F83C00B7E7022038BD704700BFB0
:1048B800704700BF026811692DE9F8430446C068D3
:1048C800A368256921F4405101431161D168E06969
:1048D8002B43656921F416412B4321F00C01034356
:1048E8000B43D3605369A16923F440730B43B0F5BC
:1048F800004F53619D4B00F09C809A425AD003F5BB
:1049080080639A4256D0FFF799F96368DFF86082AE
:1049180000EB80009B0000EB8000B0FBF3F7FFF793
:104928008DF9A8FB0737636800EB80009B0000EB5C
:104938008006B6FBF3F6FFF781F9636800EB8000A9
:104948009B0000EB8000B0FBF3F0A8FB00304009AF
:104958004FF0640909FB10663601FFF76FF932362C
:10496800A8FB063662687F09760900EB800303EB33
:10497800830392003F0106F0F006B3FBF2F5FFF760
:104988005DF9D4E9002300EB80009B0000EB800078
:10499800B0FBF3F0A8FB0030400909FB10531B01E2
:1049A8003233A8FB0383C3F3431333433B4493607D
:1049B800BDE8F883FFF752F96368DFF8B48100EBCC
:1049C80080009B0000EB8000B0FBF3F7FFF746F98F
:1049D800A8FB0737636800EB80009B0000EB8006AC
:1049E800B6FBF3F6FFF73AF9636800EB80009B002B
:1049F80000EB8000B0FBF3F0A8FB003040094FF05B
:104A0800640909FB10663601FFF728F93236A8FB5E
:104A1800063663687F09760900EB80009B003F013A
:104A280006F0F00600EB8000B0FBF3F5FFF716F98F
:104A3800A7E79A425AD003F580639A4256D0FFF707
:104A4800FDF86368DFF8288100EB80005B0000EB6D
:104A58008007B7FBF3F7FFF7F1F8A8FB07376368A0
:104A680000EB80005B0000EB8006B6FBF3F6FFF777
:104A7800E5F8636800EB800000EB80005B00B0FBAA
:104A8800F3F3A8FB03235B094FF0640909FB1366E2
:104A9800F600FFF7D3F83236A8FB063662687F09BE
:104AA800360900EB800303EB830352003F0106F451
:104AB800F876B3FBF2F5FFF7C1F8D4E9002300EB71
:104AC800800000EB80005B00B0FBF3F3A8FB03134E
:104AD8005B0909FB1353DB003233A8FB0383C3F3E1
:104AE80042133B4433449360BDE8F883FFF7B6F8BC
:104AF8006368DFF87C8000EB80005B0000EB8000DF
:104B0800B0FBF3F7FFF7AAF8A8FB0737636800EBD9
:104B180080005B0000EB8006B6FBF3F6FFF79EF81B
:104B2800636800EB800000EB80005B00B0FBF3F3F0
:104B3800A8FB03235B094FF0640909FB1366F60021
:104B4800FFF78CF83236A8FB063663687F0936090A
:104B580000EB80005B003F0106F4F87600EB800074
:104B6800B0FBF3F5FFF77AF8A7E700BF00100140A4
:104B78001F85EB5160B338B590F83930044603F01F
:104B8800FF0203B32268242384F83930D36823F45E
:104B980000532046D360FFF78DFE23681A6922F47C
:104BA80090421A615A6922F02A025A61DA6800258D
:104BB800202142F40052DA60E56384F8391084F861
:104BC8003A10284638BD80F83820FBF727FDD9E78A
:104BD8000120704790F83A30202B23D101B3FAB165
:104BE80090F83830012B1DD010B40023046881627E
:104BF8002221C28580F83830C36380F83A10E16812
:104C0800828541F48071E160626942F0010262616B
:104C18001846E36843F02003E3605DF8044B7047EF
:104C28000120704702207047F8B5044690F8390013
:104C380020282DD151B34AB394F83800012827D041
:104C48000120E28484F83800A284206BDFF84CC08D
:104C5800104F114E21621346226800254FF0210E95
:104C6800E563043284F839E0C0E90FC7C0E9136589
:104C7800FFF7BEF923686FF040021A6084F83850D5
:104C88005A6942F0800228465A61F8BD0120F8BDF1
:104C98000220F8BDDD4C00086D4D0008AD4C000841
:104CA800704700BF08B50368806B1B6813F48073F6
:104CB8000AD10268C384536923F080035361D3681F
:104CC80043F04003D36008BDFFF7EAFF08BD00BF0B
:104CD800704700BF08B5806BFFF7FAFF08BD00BF3B
:104CE80090F83A30222B2DD181680269836AB1F598
:104CF800805F10B504680AD0591C22BB62688162C3
:104D08001A70C38D013B9BB2C38543B110BD02BB72
:104D18006268C2F3080223F8022B8362F1E7036892
:104D2800DA6822F02002DA60DA6822F48072DA6047
:104D38005A69202122F001025A6180F83A10FBF7E3
:104D480059FA10BD70476268816202F07F021A70DA
:104D5800D7E76268D2B223F8012B8362D1E700BF9C
:104D6800704700BF08B5806B0368596990F839200F
:104D7800212A0BD0596990F83A20222A16D0C36B01
:104D880043F01003C363FFF7EBFF08BD0906F1D535
:104D98000022C284DA68202122F0C002DA6080F89A
:104DA8003910596990F83A20222AE8D14A06E6D5FE
:104DB8000022C285DA6822F49072DA605A692021EA
:104DC80022F001025A6180F83A10D8E703681A689D
:104DD80070B51607DD68596904460CD1910601D5EE
:104DE800AE0658D4100601D529062DD4560601D58D
:104DF800680645D470BD11F0010163D115F4907FA8
:104E0800F0D0D0070AD5EE0540F19080E06B560748
:104E180040F00100E06346D5002957D1E16B002935
:104E2800E8D0920602D5AE0600F18A805A69E16B95
:104E380002F0400201F0080152EA01054FD1204674
:104E4800FFF78EFFE56370BD94F83920212AD1D190
:104E5800A168226AB1F5805F77D0511C216212786F
:104E68005A60E28C013A92B2E284002AC2D1DA682E
:104E780022F08002DA60DA6842F04002DA6070BD3F
:104E8800DA68202122F04002DA60204684F83910DE
:104E9800FFF706FF70BDBDE87040FFF721BFEE05C4
:104EA800B4D4500712D4960744D50029B6D0E16B84
:104EB800100741F00401E163B0D5E16B41F008014E
:104EC800E163ABE7D007EAD451072CD5E16B96072D
:104ED80041F00201E163EAD411079FD5EDE7DA68F2
:104EE80022F49072DA605A69202122F001025A6194
:104EF80084F83A105A69550611D55A69606B22F040
:104F080040025A6158B1174B0365FFF7B1F8002802
:104F18003FF470AF606BBDE87040036D18472046E2
:104F2800FFF71EFF70BD9107C1D4D5E750073FF5C5
:104F380075AFB8E710077FF571AF0029BDD16DE7F0
:104F48002046FFF7CDFE236870E711882069C1F37A
:104F58000801596010B90232226282E701322262E6
:104F68007FE700BF714F000808B5806B0023C38539
:104F7800C384FFF7F5FE08BDF8B138B5D0E90031B4
:104F8800826804464CF6CC40186045F255501860CB
:104F980059609A60FEF750FB054604E0FEF74CFBAB
:104FA800431B302B07D82268D0680028F6D14AF670
:104FB800AA21116038BD032038BD0120704700BF09
:104FC80003684AF6AA2200201A607047DFF834D036
:104FD800FCF7D6FB0C480D490D4A002302E0D458D3
:104FE800C4500433C4188C42F9D30A4A0A4C00232B
:104FF80001E013600432A242FBD300F019F8FBF77A
:1050080087F97047000002200000002010000020EF
:10501800EC53000810000020B4640020FEE70244AE
:105028000346934200D1704703F8011BF9E70000DB
:1050380070B50D4D0D4C641BA4100026A64209D175
:105048000B4D0C4C00F084F9641BA4100026A642FA
:1050580005D170BD55F8043B98470136EEE755F881
:10506800043B98470136F2E7E4530008E45300088C
:10507800E4530008E85300080A44914200F1FF3362
:1050880000D1704710B511F8014B03F8014F914258
:10509800F9D110BD2DE9F047089D0E4604460F468C
:1050A800002B4AD194468C45B2FA82F260D942B1BB
:1050B800C2F12003974020FA03F30CFA02FC1F43C5
:1050C80094404FEA1C4E1FFA8CF6B7FBFEF1230CF6
:1050D8000EFB117743EA074301FB06F098420AD911
:1050E8001CEB030301F1FF3780F01581984240F271
:1050F8001281023963441B1AA4B2B3FBFEF00EFB03
:10510800103344EA034400FB06F6A6420AD91CEB16
:10511800040400F1FF3380F00081A64240F2FD80D4
:105128006444023840EA0140A41B00211DB1D44068
:105138000023C5E90043BDE8F0878B4205D90DB1CE
:10514800C5E9000100210846F5E7B3FA83F1002913
:1051580046D1B34202D3824200F2F580841A66EB4C
:10516800030201201746002DE5D0C5E90047E2E714
:10517800002A40F09380A1EB0C034FEA1C471FFA6A
:105188008CFE0121B3FBF7F607FB1630230C43EA2C
:1051980000430EFB06F0984208D91CEB030306F106
:1051A800FF3802D2984200F2D08046461B1AA4B2B9
:1051B800B3FBF7F007FB103344EA03440EFB00FE91
:1051C800A64508D91CEB040400F1FF3302D2A6451A
:1051D80000F2B6801846A4EB0E0440EA0640A5E7A4
:1051E800C1F120078B4022FA07FC4CEA030C06FAAF
:1051F80001FE20FA07F426FA07F344EA0E0400FA3F
:1052080001F84FEA1C404FEA1449B3FBF0FE1FFABD
:105218008CF600FB1E3349EA03430EFB06F9994559
:1052280002FA01F20BD91CEB03030EF1FF3A80F0EE
:105238008580994540F28280AEF1020E6344A3EB6B
:105248000909A4B2B9FBF0F300FB139944EA094435
:1052580003FB06F6A64208D91CEB040403F1FF3051
:1052680068D2A64266D9023B644443EA0E40A41BB6
:10527800A0FB02E6B4427346B14652D34FD05DB1AB
:10528800B8EB030264EB090404FA07F722FA01F306
:105298001F43CC40C5E9007400214CE7C2F120014E
:1052A80020FA01F30CFA02FC26FA01F19640334386
:1052B8004FEA1C471FFA8CFEB1FBF7F007FB1016EC
:1052C800190C41EA064100FB0EF68E4204FA02F47C
:1052D80008D91CEB010100F1FF382DD28E422BD9E1
:1052E80002386144891B9BB2B1FBF7F607FB161124
:1052F80043EA014306FB0EF1994208D91CEB03036C
:1053080006F1FF3814D2994212D9023E63445B1A5F
:1053180046EA004136E73946EDE6184602E7F04529
:10532800ADD2BEEB020366EB0C060138B146A6E728
:105338004646ECE7034698E74046D3E7D6467EE77D
:105348006444023847E708460DE7023E63442DE708
:10535800F8B500BFF8BC08BC9E467047F8B500BF5A
:08536800F8BC08BC9E4670472A
:10537000040000000C000000000000000800000015
:1053800073616665747900006D6F746F7200000060
:10539000656E636F64657200636F6D6D0000000081
:1053A0006D6F6E69746F7200546D72510000000071
:1053B000546D722053766300000000000102030464
:1053C00000000000000000000102030406070809B5
:0C53D00007000000000610160006101672
:0853DC00C0FCFF7F010000008E
:0453E400E1010008DB
:0453E800BD010008FB
:1053EC000024F400AAAAAAAA0100000010000000E0
:0400000508004FD5CB
:00000001FF
